:020000040800F2
:10000000883B0020756E0008F3650008F76500085E
:1000100000000000000000000000000000000000E0
:100020000000000000000000000000000166000861
:1000300000000000000000000366000805660008DC
:10004000C310000863120008671700083F18000873
:10005000431800084718000817260008AF350008A5
:10006000AB460008BF490008A3690008B76B000849
:10007000C36B0008117100081371000815710008A6
:1000800017710008197100081B7100081D71000824
:100090001F710008217100082371000825710008F4
:1000A00027710008297100082B710008D966000823
:1000B0002D7100082F710008317100080100202007
:1000C00008437047FDB5B2B03A98049102A93B22AB
:1000D000885400200D9027A8401C31900DE0049812
:1000E000329A90470490002801D100F0CDFE0D987F
:1000F000401C0D903398401C3390339801780029B0
:1001000010D02529EBD100200790089009900A9083
:100110000B900C90002102250120149008201290D1
:10012000339C05E00D9800F0B1FE080014990143DE
:10013000641C20782028F8D023280BD02B2804D04A
:100140002D2804D0302808D00AE02943F0E7080021
:100150000421ECE708000821E9E708001021E6E7A0
:100160002A280FD1349802681068121D349B1A6037
:100170000F90002804D542420F9208000421014349
:10018000641C12E000200F90644A09E00F9B934228
:1001900005DA9E00F3185B00181830380F90641CC5
:1001A00020780300303B0A2BF0D320782E2803D090
:1001B0000020C0430E9027E0641C20782A2808D134
:1001C000349800680268001D349B18600E92641C0D
:1001D0001AE02D2802D12D22641C00E0002200200C
:1001E0000E900CE0002A09D10E9B4C4EB34205DA6A
:1001F0009E00F3185B00181830380E90641C2078AD
:100200000300303B0A2BEDD302A80187267831008A
:1002100040487844FF30401E00F012FF002801D013
:10022000641C00E0002602A83A214654405C68287D
:1002300004D1207868280BD1622005E06C2807D112
:1002400020786C2804D1712002A93A228854641CB9
:1002500018A80690207869460870601C339068469C
:1002600004782000253833D01C3800D1CCE1001FA1
:10027000022800D8C8E1133801D100F02FFD093859
:1002800000D1C1E1801E01D100F0C5FD401E01D1A9
:1002900000F072FD401E022800D8B5E1001F01D118
:1002A00000F06AFD401F00D108E1401E01D100F0BE
:1002B00015FD401E00D1F0E0C01E0ED0801E01D101
:1002C00000F00CFDC01E01D100F008FD00F0AEFDF5
:1002D00014980790252018A97CE1349800680468D8
:1002E000001D349908600594002C00D0C1E002A8DC
:1002F0003B21405C002800D1B5E00024E4430648DF
:100300007844143000F0A6FE201A01D000F0BCFDA5
:1003100000F099FD2466000058660000CBCCCC0CA0
:1003200001236A4602A9280000F06AFE002801D0D5
:1003300000F0AAFD641EF3D13295079D18AC002D84
:100340000FD0329E21780498B0470490002801D144
:1003500000F09AFD0D98401C0D90641C6D1EF1D1AB
:1003600032963020694608700A9C002C0DDD329DC3
:1003700001236A4602A9280000F042FE002801D0AD
:1003800000F082FD641EF3D13295059C089D002D7E
:100390000FD0329E21780498B0470490002801D1F4
:1003A00000F072FD0D98401C0D90641C6D1EF1D183
:1003B0003296302769460F700B9C002C0DDD329D64
:1003C00001236A4602A9280000F01AFE002801D085
:1003D00000F05AFD641EF3D132950598089944182F
:1003E000099D002D0FD0329E21780498B0470490CB
:1003F000002801D100F048FD0D98401C0D90641CB0
:100400006D1EF1D13296684607700C9C002C0DDDF4
:10041000329D01236A4602A9280000F0F1FD002860
:1004200001D000F031FD641EF3D1329502A83821CD
:10043000405C400700D460E62020694608700198BF
:10044000002800DC59E6019C329D01236A4602A97E
:10045000280000F0D5FD002801D000F015FD641E35
:10046000F3D1329549E61B4878446830059000F096
:10047000EAFC0E9D002D03D5200000F00FFE09E0E0
:100480002A000021200000F011FE002801D0001BEE
:1004900000E02800089000F0D6FC3498006802685C
:1004A000001D349908600020C0430021104002AABA
:1004B00003C218A80590782100F0A9FC02A83B21EE
:1004C000415C002908D00024E4434B487844FF30C5
:1004D000293017E7B86400003A21405C62286AD0EE
:1004E000682819D06A2845D06C2806D071284FD0CA
:1004F000742831D07A2821D06FE0349800680168E0
:10050000001D349A106000297AD10024E4433B484E
:100510007844FF301738F5E6349800680168001D0C
:10052000349A1060002905D10024E443334878440C
:10053000CA30E7E60D98088000F085FC3498006822
:100540000168001D349A1060002959D10024E44349
:100550002A487844A630D5E6349800680168001D22
:10056000349A106000294BD10024E4432348784496
:100570008A30C7E6349800680268001D3499086024
:10058000002A13D10024E4431C4878446E30B9E6B5
:10059000349800680268001D34990860002A05D16B
:1005A0000024E443154878445230ABE60D98C11757
:1005B00003C200F048FC349800680168001D349ABA
:1005C0001060002905D10024E4430C4878442C3005
:1005D00098E60D98087000F036FC349800680168C1
:1005E000001D349A106000290AD10024E443034816
:1005F0007844083086E600BF486300005C63000072
:100600000D98086000F01FFC34980068C21D072098
:1006100082433498026003CA349B1A6002AA03C260
:100620002022C80F04D007982D2118AA11540DE0DC
:1006300002A8008F284204D007982B2118AA115431
:1006400004E0C00704D5079818A90A54401C079075
:1006500018A8079940181390059027AD02A803C861
:1006600016AA03C2684600782021014368468170BB
:10067000612909D00E98002801D5062003E003D196
:10068000672901D114980E9002A803C80F0006181C
:100690007F417E15FF17BBA20CCA9F4212D1964222
:1006A00010D10903020D11430003002901D10028D4
:1006B00008D003200890613C1A2C19D324497944AE
:1006C0008E3110E002A803C8080041004915994284
:1006D00012D1000310D103200890613C1A2C21D3C1
:1006E0001C4979446E310322139800F005FDAAE3FA
:1006F000194979446231F6E701AA02A803C800F05B
:1007000008FD02AA03C268468078612813D10598C3
:1007100030210170811C059169460978612905D154
:10072000782104E00D4979443231DCE758214170E9
:100730000798801C079002A803C894A20CCA024024
:100740000B400DD1002A0BD10024002663E100BF2D
:100750004462000048620000386200003C62000011
:1007600068468078612800D096E00E98002801D570
:10077000212000E0401C1390139F7F1C16A803C883
:100780000022002300F0DAFC02A830C802D2802048
:10079000000645400198001F019027A90A7027A86C
:1007A000461C002F31DD20002900002280235B033E
:1007B00000F0DDFC29D81C2200F0F2FC04000D0042
:1007C00000F026FD1590FF1F002F09DD00F05AFDF7
:1007D00002000B002000290000F0BBFD04000D000A
:1007E000F01D0721159A002A0ADD491E08D4401E73
:1007F00013071B0F03701211F5E7401E0022027051
:10080000491EFAD5C61D002FCDDC27A83199711AD3
:1008100027AA551C139A0C00914200DD1400002CED
:1008200033D48C4205DA411C095D082901DB0F2114
:1008300000E00021220027AB9B1801E0641E5B1E34
:10084000521E1E788E42F9D00F2904D1411C895CBA
:10085000491C401C8154002A04D527AD641C019812
:10086000001D0190611E10D46A1868460078137844
:100870003033DEB23A2E01DBC318C6331370491E83
:10088000521E0029F3D5694608700E98002800D43E
:10089000C0E0601E0E90BDE016A830C86D006D0867
:1008A00001986B4948436B4900F0E0FD0190072037
:1008B0000199401A002805DD02002000290000F0FF
:1008C00079FB0AE042420020634900F073FB02001A
:1008D0000B002000290000F023FE6A469278662A69
:1008E00002D1019A0A3200E006220E9B9A18142ABD
:1008F00000DD142227AB30241C705C1C02E016A81B
:1009000003C8139A002A45DD16AB03C3139216A839
:1009100003C800F08FFC159006460834042530000B
:100920000A2100F0A6FD0F0030000A2100F0A1FD11
:1009300006003037601E077030000A2100F099FD74
:100940000F0030000A2100F094FD0600A41E30378D
:1009500027706D1EE3D108341398083813900028CF
:10096000CDDD159800F07EFC02000B0016A803C830
:1009700000F0EFFC0022394B00F033FE16AA03C250
:10098000C5E700BFFFFFFFFFFFFFFFFFFFFFFFFF08
:10099000FFFFFF7F3198201A27A94D1C04E0401E5D
:1009A0000199491E01916D1C29783029F7D06946BB
:1009B0008978662902D10199491C06E0694689783F
:1009C000652901D1149900E000210E9A5418A04223
:1009D00000DA441E002C1DD4844204DA285D342839
:1009E00001DD392100E030212200681E831801E07A
:1009F000641E5B1E521E1E788E42F9D0392902D128
:100A0000A95C491CA954002A04D50500641C01985E
:100A1000401C0190019E1395684600786946487015
:100A200000F0C2FE406A0078694608700E9D20B250
:100A3000002804DC149C0548784410301390684664
:100A4000807866280CD1761C24E000BF545F00003B
:100A500097750000A08601000000F03F84D7974101
:100A600068468078672846D130B20321C94388425E
:100A700047DBA84245DA761C02A8008F1299C0B263
:100A8000084203D120B2A84200DC050030B22D1A82
:100A900000D5002537B2002F00DDBAE00898411CD0
:100AA00008913021059A1154002D05DC02A8008F11
:100AB0001299C0B2084206D00898411C08916946B4
:100AC0000978059A11547842854200DA6E4236B2AE
:100AD00070420B90AD1920B2854200DA2C0024B28E
:100AE0000994220013990598089BC01800F004FB94
:100AF000281B0C90DAE068464078612818D17020F5
:100B00001BE020B2A84206DA02A9098F129AC9B2E4
:100B1000114200D105006D1E00D5002568464078C1
:100B2000672802D16520694607E04520694604E050
:100B300068464078412801D1502048700898411CEF
:100B4000089113990978059A11541398411C002DA6
:100B500005DC02A8008F129AC0B2104219D0089882
:100B6000421C08926A461278059B1A54002D10DD2B
:100B7000641E20B2854200DA2C0022B20598089B40
:100B8000C01800F0B9FA24B2089800190890281B80
:100B90000B9005980899401869464978017031B260
:100BA000002903D42B214170871C03E02D224270C1
:100BB000871C4E42002412AD300008E00A2100F0EC
:100BC00055FC15AA03C229701598641C6D1C00B24F
:100BD0000028F3DC012C08DC684640782021014322
:100BE000652902D1302038707F1C002C09D13020BB
:100BF00038707F1C07E0641E12A8005D303038702A
:100C00007F1C002CF7DC059808994018381A0990C9
:100C10004CE020B231B288421DDA22B21399059815
:100C2000089BC01800F068FA24B2089800190890D0
:100C3000391B0B91002D05DC02A9098F129AC9B24C
:100C4000114206D069460978059A11540998401C4A
:100C500009900C952AE032B213990598089BC018A8
:100C600000F04AFA0898C0190890A41B002D05DC72
:100C700002A9098F129AC9B2114205D0411C0891EC
:100C800069460978059A115420B2854200DA2C0091
:100C900022B21398C1190598089BC01800F02CFACD
:100CA00024B2089800190890281B0B9002A838213C
:100CB000405C14210140102900D0C4E00798089935
:100CC00040180B994018099940180C9940180F9931
:100CD000884200DBB7E0081A0A90B4E002AA3A2082
:100CE000105C622808D068280ED06A2814D06C28BE
:100CF0001DD0712810D01AE0349801680868091DC9
:100D0000349B1960C0B218E0349801680868091D66
:100D1000349B196080B210E034980068C31D07202E
:100D200083433498036003CB349C236006E03498FB
:100D300001680868091D349B1960002102AB03C3D8
:100D4000108F1299C0B208425BD002A803C80029D4
:100D500001D1002855D06846007820210143782928
:100D60004FD1079818A930220A54401C421C079200
:100D70006A4612780A5444E002AA3A20105C6228BB
:100D800008D068280ED06A2814D06C281DD071288D
:100D900010D01AE0349801680868091D349B196066
:100DA00040B218E0349801680868091D349B196046
:100DB00000B210E034980068C31D072083433498C4
:100DC000036003CB349C236006E034980168086814
:100DD000091D349B1960C11702AB03C3002902DA55
:100DE00007982D2109E0108F284202D007982B2167
:100DF00003E0C00705D50798202118AA1154401C0C
:100E0000079018A80799401805906846017802A82D
:100E100000F03EF817E014980790349800680168D5
:100E2000001D349A106018A801700CE01498079007
:100E3000252018A9087068460078002803D0079577
:100E40006846007848700F980799401A0A99401A26
:100E50000899401A0B99401A0999401A0C99401A9E
:100E6000019002A83821405C400701D5FFF765FAE0
:100E70002020694608700198002801DCFFF75DFA20
:100E8000019C329DFFF74CFA0020C04335B0F0BD05
:100E9000F2B586B0040025696F2901D1082707E063
:100EA0000846FFF70BF9782801D00A2700E0102741
:100EB0003C2603CC083C04AA03C26A46127E642A7C
:100EC00003D06A46127E692A09D1002907DA04A8EC
:100ED00003C800220023121A8B4104A80CC004A8E6
:100EE00003C800290DD100280BD1206B002808D1A0
:100EF000082F3DD13820205C000739D53B26302013
:100F000035E00294009504A830C8761E01962000B2
:100F100029003A00FB1700F04FFC3032D0B23A28DB
:100F20000DDA00988255200029003A00FB1700F0E6
:100F300043FC04000D0007D1002C05D10AE06846EF
:100F4000007E8218AF32ECE70298C06800998919D8
:100F50008842DAD3029C009D082F09D13820205CFA
:100F6000000705D5A85D302802D0761E3020A85590
:100F70003C20801BA061A919E160216B884206DA40
:100F8000081A2062208F1C490140218710E00029A7
:100F90000ED53821615C14220A40102A08D1616BF9
:100FA0006269891A226A891A081A002800DD2062FB
:100FB00007B0F0BDF8B50026104F04000D000092F8
:100FC00014E0C00707D532003B002000290000F0E4
:100FD00008FB04000D00009840100090300039001C
:100FE00032003B0000F0FDFA06000F0000980028D8
:100FF000E7D120002900F4BDEFFF000000002440ED
:10100000F8B50024002B11D007000E0014001D00BD
:101010002178B068B847B060002809D0F06A401C59
:10102000F0620020641C6D1EF2D104002000F2BDAD
:101030000020C043F9E70268531C03601170704739
:10104000C9B202788A4203D0401C002AF9D100209C
:1010500070472E0080B5002801D100BF07A00649C7
:101060000B68002B03D022220021984701E000F0FA
:10107000E1FB222002BD000054370020636F6E7335
:10108000747261696E742068616E646C65723A2076
:10109000626164206D65737361676500431C01784C
:1010A000401C0942FBD1C01A70474300C9B2521E0E
:1010B00005D30378401C8B42F9D1401E70470020B5
:1010C0007047FEE770B4103A03D378C9103A78C07D
:1010D000FBD2530701D318C918C001D508C908C0ED
:1010E000D20704D30B880380891C801C002A01D5F9
:1010F0000B78037070BC70478B0701D18307E1D078
:10110000124205D00B78491C0370401C521EF9D1C5
:10111000704710B5144600F002F8226010BD4A0076
:1011200053155B1C08D0520D06D003231B02FE3A58
:10113000D21A1305C91A70470022704730B401242F
:1011400064054D00EC420BD85D00EC4208D80C0061
:101150001C4364000443144304D2994200D19042DA
:1011600030BC7047FCD08B42FAD18242F8E730B4F1
:10117000012464054D00EC420BD85D00EC4208D818
:101180000C001C4364000443144304D28B4200D17E
:10119000824230BC7047FCD09942FAD19042F8E7C5
:1011A000124217D40023DB435B0D9C464B005B0DC2
:1011B00006D0634504D09B18634502D212058918F6
:1011C00070476246090D11430905002000B500BFB4
:1011D00000BF00BD52424B005B0DF1D05B1C5B05B4
:1011E000EED25B0D934102D91205891A70470BD1DB
:1011F0000B031B13C90FC907821C00204341134373
:10120000E4D912051143E1E7C90FC9070020DDE762
:10121000F4464A1805D200F00FF801D580174008AF
:10122000604700F009F80121C907884200D9080089
:10123000404260474A1812D2400DC90208430121BA
:10124000C9070843520D40210901521A521C06D405
:1012500052421F3201D4D0407047C017704700205F
:101260007047FEE7010042221201D21E004207D061
:1012700002D4521E0018FCD5C10A40051205891877
:10128000704700000100EED54042F446FFF7EBFF47
:101290000122D207114360478B4200D1824205D917
:1012A0008446100062468C4619006346DF184C18CD
:1012B000640D7F0D3AD0661C760537D0E61B352EBF
:1012C00034DCDB022B43DB0A0C0DC9022943C912B3
:1012D000202E0DDB1700203E06D01F00F741F34003
:1012E0005F400026012A7741C01871410DD217E0F6
:1012F0001700F741F2405740F3415A40B340F340E2
:101300005A400026801859410AD3A21C52050FD01A
:10131000C207012F724117004008CB071843490844
:10132000641C24054208AF4170416141F0BC704724
:10133000641C21050020F9E76B4010E06B40ABE72F
:10134000F742F3D1E943F1E72442EFD10020002135
:10135000ECE7F0B40125ED070F005F40EED40C0080
:10136000871A9C4105D2C01BA141D2196341694033
:101370006B40AE0ADF184C18F442E1D2640D7F0DC9
:10138000E2D0E61B362ED1DCDB022B43DB0AA4467F
:101390000C0DC9022943C90A012E28DC04D1D60745
:1013A0005208DF073A435B08EF0A764290419941C1
:1013B00014D039423BD1B61940414941761C3942DB
:1013C00004D1761C001849413942FAD0B943674626
:1013D000B74208D9A41B24052143A7E70042EAD15C
:1013E0003642E8D1A2E7E40AE10700209EE7202E7A
:1013F0000BDD203E1F00F340F7415F40012A002231
:1014000057417E42984191410BE01700F741F2406D
:101410005740F3415A40B340F3405A407E42904116
:1014200099410A0303D2641EB6194041494100277D
:10143000641E24054208AE4178416141F0BC70470A
:10144000F446002804D4494200F013F840426047B3
:101450004042002905D45FD000F00BF840424942D9
:101460006047494200F005F84942604703460B4394
:10147000E6D40022030A8B420BD203098B4219D215
:1014800043088B422ED2411A00D2014652411046E7
:101490007047FF2209023FD012068B4205D3121279
:1014A00009028B4201D31212090203098B4219D39C
:1014B00000E0090AC3098B4201D3CB01C01A524193
:1014C00083098B4201D38B01C01A524143098B42DD
:1014D00001D34B01C01A524103098B4201D30B01C6
:1014E000C01A5241C3088B4201D3CB00C01A5241EB
:1014F00083088B4201D38B00C01A524143088B42B0
:1015000001D34B00C01A5241884200D3401A5241C5
:10151000CFD201461046704708B500F091F908BDDA
:10152000F0B40E005E400125ED072E40B446AE0A31
:10153000DF184C18F4423BD2F74241D2640D43D03D
:101540007F0D38D0E41BC902DB0229432B43CF0AAD
:10155000DB0A0600B61A9F4104D2641EB6197F4109
:10156000B6185F416812800D24180018844222DCEE
:10157000E80C0021B6197F41B61A9F4102D2B61875
:101580005F413F1C40414941F4D3241C21DD240527
:10159000B6197F41B61A9F4105D33743C607374373
:1015A0000026012F7041614166463143F0BC70470F
:1015B000FCD1F74205D20020C14349054908F3E7B1
:1015C00004D00020C143F1E77F0DFAD0002061462E
:1015D000ECE72442FAD1401C61410F03F6D300200E
:1015E000E2E7F0B50E005E400125ED072E40B4465F
:1015F000AE0ADF184C18F44208D2F7420ED2640D3E
:1016000001D07F0D12D100206146F0BD05D1F74217
:1016100001D87F0D05D10020C143F0BDFBD1640D81
:10162000F9D00020C143490549088FE0E419C902F7
:10163000DB0229432B43DB0A460DC00231438E46B1
:1016400030B487B295B27D432E0CADB2140C7C43FE
:10165000A419260C240425439CB27C43A419190C1C
:101660007943270CC919A4B20F043C43090C000CA0
:1016700097B247432E0CBE193543ADB2170C474302
:10168000360CBF19A6B2BF193E043543240C3E0CDC
:1016900036199FB24743BF19BCB23E0C89191F0CC3
:1016A00047437F183E043443390C704680B297B2EA
:1016B00047432E0CBE193543ADB2170C4743360CC9
:1016C000BF19A6B2BF193E043543240C3E0C36198F
:1016D0009FB24743BF19BCB23E0C89191F0C474348
:1016E0007F183E043443390C77463F0C90B2784360
:1016F0002E0C80190604ADB22E43050CA0B22D1895
:10170000120C7A435019020C80B2240CA4189AB21D
:101710007A43121914042043120C89181B0C7B43C2
:10172000C91830BCEF0A394203D1B61940414941CA
:10173000641E6F12BF0DE41B0BDBFF19BC4211DAF4
:10174000240500274208AE41784161416646314395
:10175000F0BD641C05D1401C6141CF0201D3490892
:10176000F4E750E75DE7FEE7613801E0FFE7413865
:101770001A288041C00F704701000939052901D39B
:10178000202801D101207047002070470100413915
:101790001A2900D220307047010061391A2900D27D
:1017A0002038704702487047024870470000000028
:1017B000440000200C00002012422DD0994231D963
:1017C00070B500251B4209D00C00002112E0110069
:1017D000FFF74FFE0A000021002370BD0942F6D03A
:1017E0000024012649186441944200D3A41A76418A
:1017F000F8D33100012601E0764109D20018644196
:101800006D41A41A9D41F7D2A4185D41B619F5D3D4
:10181000300022002B0070BD1B42CFD108B500F074
:1018200011F808BD01D19042CAD202000B0000217C
:101830000020704780B5012000F006F801BDFEE7EA
:101840007047FEE77047FEE780B500BF00BF024A61
:1018500011001820ABBEFBE726000200C16908009A
:101860000006C00F7047000070B59C4C207800281F
:1018700027D002284DD038D3042872D05DD3062853
:1018800000D1A7E000D291E0082800D1CAE000D240
:10189000B4E00A2800D1EDE000D2D7E00C2800D156
:1018A00010E100D2FAE00E2800D188E100D250E128
:1018B000102800D1B8E100D299E1112800D1B8E197
:1018C000DBE1A94D2888002806D1A84800F0BAFA23
:1018D000FA20C000288007E000F0E2F9A448007870
:1018E000002801D001202070C7E19F4D28880028E2
:1018F00006D1B84800F0A6FAFA20C000288007E018
:1019000000F0CEF99A480078002801D0022020701B
:10191000B3E1954D2888002806D1AF4800F092FA2F
:10192000FA20C000288007E000F0BAF9904800785B
:10193000002801D0032020709FE18B4D28880028CB
:1019400006D1B54800F07EFAFA20C000288007E0F2
:1019500000F0A6F986480078002801D00420207005
:101960008BE1814D2888002806D1AC4800F06AFA46
:10197000FA20C000288018E000F092F97C48007836
:10198000002812D0A649A74800F02EFE002806D055
:10199000764800F057FA0120B849087005E00020A9
:1019A000B749086028800520207066E16E4D2888C0
:1019B000002806D1B34800F045FAFA20C00028807C
:1019C00007E000F06DF96A480078002801D0062091
:1019D000207052E1644D2888002806D1AA4800F002
:1019E00031FAFA20C000288007E000F059F9604879
:1019F0000078002801D0072020703EE15A4D288849
:101A0000002806D1A14800F01DFAFA20C000288065
:101A100007E000F045F956480078002801D008207A
:101A200020702AE1504D2888002806D1984800F0FF
:101A300009FAFA20C000288007E000F031F94C488C
:101A40000078002801D00920207016E1464D288832
:101A5000002806D18F4800F0F5F9FA20C000288050
:101A600007E000F01DF942480078002801D00A2064
:101A7000207002E13C4D2888002806D1864800F0FD
:101A8000E1F9FA20C000288007E000F009F93848A1
:101A90000078002801D00B202070EEE0324D28881D
:101AA000002806D17D4800F0CDF9FA20C00028803A
:101AB00007E000F0F5F82E480078002801D00C204F
:101AC0002070DAE0284D2888002809D19C4800F0D1
:101AD000B9F9FA20C00028803AE000BF7037002032
:101AE00000F0DEF822480078002801D00D20207098
:101AF00000242600250093A14A4800F075FD01004E
:101B0000002825D0904822000270C91C0A78302A8B
:101B100002DB0A783A2A00DB491C220013009BB240
:101B20000F2B11DA0B78302B02DB0B783A2B02DB10
:101B30000123037008E00B789A4D1600B6B2AD1978
:101B4000AB77521C491CE9E7964892B2801884771B
:101B500093E0054D288800280CD1934800F072F9D5
:101B6000FA20C000288029E05E370020906E00082F
:101B70007A37002000F094F88C480078002801D0D3
:101B80000E2020700024260025008949254800F0F9
:101B90002BFD0100002811D0081D824931222E237F
:101BA000CA54220092B2152A08DA027823009BB2A6
:101BB000CB1830255A55641C401CF2E75DE09D4D62
:101BC000288800280AD17B4800F03CF9FA2000015F
:101BD00028800BE09C6E0008B46D000800F060F8EF
:101BE00072480078002801D00F20207045E0914D08
:101BF0002888002806D1274800F024F9FA20C000E0
:101C0000288007E000F04CF868480078002801D0F0
:101C10001020207031E000BFA86E0008B46E0008EC
:101C200010700008A030002000F00FFD112020707F
:101C300023E0804D2888002806D17F4800F002F973
:101C4000FA20C000288018E000F02AF857480078F1
:101C5000002801D01220207000F088FB0120010034
:101C6000764A117076490978312901D19149087075
:101C700000200100C24A1170207070BD633700203F
:101C800048370020C46D0008E46C0008F86C0008B8
:101C90000C6D0008146C0008206D00081870000816
:101CA00010B5322000F0DAFD8E4C8FA1200000F03C
:101CB0009BFC002817D001203C490870002001003F
:101CC0008A4A11700100AF4A11700100924A1170E6
:101CD000924908600100574A11800100904A117032
:101CE000904908702AE09049200000F07DFC00280F
:101CF00005D18E49200000F077FC00281BD0012080
:101D00007A49087000200100284A117001009D4A9C
:101D100011700100474A11808049086001009A4A09
:101D2000117001007E4A11707E490A78521C0A70B7
:101D30007949087002E001209249087010BD000046
:101D40002070000847534E007D370020F8B54B2423
:101D5000164F00263E702000C0B200281BD08B48D2
:101D60000178012901D10670641E5E4D8849280062
:101D700000F03AFC002804D0012038706848067052
:101D800009E06A49280000F02FFC0028E3D0012078
:101D9000804908703E702000C0B2002800D13E701B
:101DA000F1BD000078350020287000087A37002047
:101DB00030700008C06E0008F8B504000026350039
:101DC000300074490870744F30003870387800283B
:101DD00024D12000C0B2002820D06E48007800280E
:101DE0001CD16A480178012902D131000170641EBA
:101DF0003DA13C4800F0F8FB0500002806D001207A
:101E0000387046480660300045490870002DDDD026
:101E100020212970681C01703500D7E72000C0B26E
:101E2000002803D13E480178491C0170322000F09F
:101E300015FDF1BD5E370020CC6E00086E37002026
:101E4000A6350020F8B5040000263000524908707D
:101E50008025ED000096234F009A2900380001F0FC
:101E60007FFB2E480660022001F0A2FB20780028AC
:101E70000CD09D48FFF7F2FC0028FAD020789B494F
:101E80000880641C012001F093FBEFE7022001F0C1
:101E90008FFB954D2800FFF7E1FC0028F9D0934E09
:101EA0000D2030802800FFF7D9FC0028FAD00A2046
:101EB0003080F1BD6737002010B50400022001F02A
:101EC00077FB2078002809D08748FFF7C7FC002857
:101ED000FAD0207885490880641CF2E7022001F0DE
:101EE00067FB10BDA03000204F4B00006A37002078
:101EF00010B5040000200100C9B21E2902DA00BF9B
:101F0000401CF8E77848FFF7A9FC0028FAD0200029
:101F1000C0B27649088010BD6B37002048370020DA
:101F200082370020713700203870000840700008A8
:101F300038B505000C002878002816D02000C0B263
:101F4000002812D000200100C9B2322902DA00BFF5
:101F5000401CF8E7641E6448FFF780FC0028FAD0B4
:101F60002878624908806D1CE5E7022001F020FB1B
:101F70000D20FFF7BDFF0A20FFF7BAFF31BD0000BB
:101F800064370020663700206F3700206937002053
:101F9000487000087B3700207A370020FEB5002506
:101FA0002C00280052490870322702970195514EA3
:101FB0000096019A0299009801F0D2FA00984E48D2
:101FC00005604E48FFF73EFF0520FFF7F5FE4C4841
:101FD0000078012834D128004949087049A130000F
:101FE00000F002FB009000281FD00098C01C009059
:101FF000454C009801F09BFB20702078232801DBE2
:1020000028002070207808280FDB02970195340003
:10201000019A0299200001F0A3FA374805603B4875
:10202000FFF710FF0520FFF7C7FE36A1300000F0D4
:10203000DBFA0400002803D020202070641C2070EC
:102040002F48007801282DD131A1300000F0CCFAC2
:10205000040000281FD0A41D2078312802D0207849
:10206000352810D1019700953700009A0199380062
:1020700001F076FA20480560A548FFF7E3FE052049
:10208000FFF79AFE0EE028001D490870A14801786C
:10209000491C017006E02800194908709D48017824
:1020A000491C017016480078012815D19AA130000A
:1020B00000F09AFA040000280ED0241D2078312860
:1020C00006D101200A49087028009249087003E0EF
:1020D00090480178491C017005480078002801D11A
:1020E0008E480570F7BD00000038014028380140D7
:1020F0007C370020A03000204837002050700008B6
:102100007A370020513A000013360020D86E0008BC
:1021100045473A00F0B5B3B0002401943220009056
:1021200025007F4E2A000099300001F019FA7D4801
:1021300004607D480078012810D1322000902500ED
:10214000774E2A000099300001F00AFA75480460C1
:102150007648FFF777FE0220FFF72EFE74A1704845
:1021600000F042FA0500002800D1CDE02F1D38789C
:1021700022282DD17F1C6F4D2000288028880A2816
:1021800026DA3878222806D120006B492A88891857
:102190004E2288541CE0684E3878298871184E22E7
:1021A0008854288830184E21405C01F0C7FA002876
:1021B00009D0288830184E21405C01F0C8FA2988DF
:1021C00071184E2288542888401C28807F1CD5E72F
:1021D000322002900194524D019A0299280001F098
:1021E000BFF9504804606420009022001AAD0099A5
:1021F000280001F0B5F9504E35007A354F492800D6
:1022000000F0F2F9002805D14D49280000F0ECF962
:10221000002822D035004E354A49280000F0E4F964
:10222000002804D048491AA801F09AFA1AE0474950
:10223000280000F0D9F9002804D045491AA801F077
:102240008FFA0FE04349280000F0CEF9002809D0AA
:1022500041491AA801F084FA04E02A003FA11AA813
:1022600001F07EFA3E48FFF7EDFD0220FFF7A4FDE6
:102270003C492B4800F0B8F9050000282CD01AA9D9
:10228000274800F0B1F90500002825D00120234996
:10229000087013200190009437005937009A019973
:1022A000380001F05DF923482100018001881329DD
:1022B00012DA2978222905D1210000883018592204
:1022C000815409E029780288B2185923D154018831
:1022D000491C01806D1CE9E710480078002813D1E3
:1022E00064200090260001AF32000099380001F010
:1022F00037F91AAA1C4901A801F032FA01A8FFF720
:10230000A1FD0220FFF758FD0748047033B0F0BD6F
:10231000E46E00088137002054543A007E370020D4
:10232000A0300020483700207A370020CC6E00080B
:10233000504E3A005A370020783500205870000877
:102340006070000868700008F06E00087070000887
:1023500078700008FC6E0008086F00082573000004
:10236000146F0008807000082C6C0008F0B59BB05A
:1023700000273C007AA17B4800F036F906000028CF
:1023800034D0361D3078222830D1761C764C380077
:10239000208020880A2829DA3078222806D13800BF
:1023A0007249228889184E2288541FE06F4D307878
:1023B000218869184E22885438006D490870208899
:1023C00028184E21405C01F0B9F9002809D0208876
:1023D00028184E21405C01F0BAF9218869184E2274
:1023E00088542088401C2080761CD2E7322001903F
:1023F00000975C4C009A0199200001F0B1F85D480B
:10240000076064213A0002AC200001F0A9F8574DA2
:102410002C007A345849200000F0E6F800280CD14E
:102420005649200000F0E0F8002806D154A1200011
:1024300000F0DAF8002800D188E04E355149280034
:1024400000F0D2F8002804D04F49200001F088F9AC
:1024500081E04E49280000F0C7F800280BD14C4914
:10246000280000F0C1F8002805D14A49280000F0F2
:10247000BBF8002804D04849200001F071F96AE057
:102480004649280000F0B0F800280BD14449280044
:1024900000F0AAF8002805D14249280000F0A4F86D
:1024A000002804D040A1200001F05AF953E03F4930
:1024B000280000F099F8002805D13D49280000F0D7
:1024C00093F8002804D03B49200001F049F942E08C
:1024D0003949280000F088F8002805D1374928003C
:1024E00000F082F8002804D03549200001F038F9C6
:1024F00031E03449280000F077F800280BD1324948
:10250000280000F071F8002805D13049280000F0BB
:102510006BF8002804D02E49200001F021F91AE0C0
:102520002C49280000F060F8002804D02A4902A8AD
:1025300001F016F90FE02949280000F055F80028AD
:1025400009D019A1200001F00BF904E0220024A118
:1025500002A801F005F90120224908701BB0F0BD66
:10256000504E3A00A03000205A3700207835002025
:102570006B37002048370020587000086070000852
:102580000000000068700008D46D00088870000822
:102590009070000898700008A0700008A8700008EB
:1025A000B0700008FC6E000877777700B8700008FC
:1025B000206F0008C0700008C8700008D0700008C4
:1025C000E46D00082C6F000870700008386F000878
:1025D00078700008D8700008446F0008506F000839
:1025E000257300007E37002070B50D78002D11D0C6
:1025F0000C0004E0491C0E78964207D0401C2900CC
:10260000FEF71EFD002805D0010023005B1C1A7890
:10261000002AEFD170BDFEE700B5BFF34F8F6648CB
:1026200066490860BFF34F8F00BFFDE710B4030099
:1026300050338C001B191A6010BC70470200100048
:1026400050308B00C0180068704780B55C48FFF7B9
:10265000F9FB5C48FFF7F6FB5B48FFF7F3FB5B48D1
:10266000FFF7F0FB5A48FFF7EDFB01BD78B58DB0E1
:102670000500584C2078002803D15749200001F06C
:102680006FF82078342800DA94E020783A2800DBCC
:1026900090E022005149684601F062F86846FEF772
:1026A000FDFC0100C9B26846FFF742FC4C48FFF749
:1026B00003FC4C48FFF700FC2800C0B2002814D0EF
:1026C00002281AD015D3042823D01AD3062824D0E0
:1026D0001BD3082829D024D30A282ED029D30C288C
:1026E00037D02ED30D2838D03AE03F48FFF7E4FB2F
:1026F00036E03E48FFF7E0FB32E03D48FFF7DCFB09
:102700002EE03C48FFF7D8FB2AE03B48FFF7D4FB1C
:1027100026E03A48FFF7D0FB22E03948FFF7CCFB30
:102720001EE03848FFF7C8FB1AE03748FFF7C4FB44
:1027300016E03648FFF7C0FB12E03548FFF7BCFB58
:102740000EE03449684601F00BF86846FFF7B4FB29
:1027500006E03148FFF7B0FB02E03048FFF7ACFB82
:102760002F4C3048028804212000FFF75FFF03212F
:102770002000FFF763FF2C4908700A20FFF7B8FB21
:102780001A20FFF7B5FB294E300000F067F8284803
:10279000FFF758FB300000F061F8264801780A295D
:1027A00008DB00210170002203212000FFF73EFF1B
:1027B000FFF732FF0EB070BD0400FA050CED00E02B
:1027C000686F0008746F0008446C00085C6C0008B7
:1027D000806F00085E3500208C6F0008046E0008D2
:1027E000986F000896350020686A00089C6A000807
:1027F000CC6A00086C6B0008306A0008486D00085D
:10280000746C0008146E0008246E00085C6D0008EB
:10281000346E00088C6C0008FC6A0008A46C000888
:10282000002800405A3700207F370020881300001E
:10283000A46F00088037002000B5BFF34F8F0D480C
:102840000D490860BFF34F8F00BFFDE710B40300D0
:1028500050338C001B191A6010BC704700B500285B
:1028600007D006490A78012AF9D100220A70401ED1
:10287000F5E700BD0400FA050CED00E06837002024
:10288000F8B590B0FFF78AFB934C2078401C20707D
:102890002078332801DBFFF7CFFFCD4800780128EF
:1028A00007D1CC480078002803D100202070FFF722
:1028B00031FCC8480078002800D1A6E1C648FFF7DF
:1028C000FBFA642500273E0003AC320029002000FB
:1028D00000F046FECE4C5A20205C68280AD020002A
:1028E00046300090230014332200CA4920005A3099
:1028F00000F036FF5A342000FEF7D0FB0200C64934
:1029000003A800F02DFF03A8FFF7D6FA0D20FFF76C
:10291000EFFA0A20FFF7ECFAFFF718FA2000FFF7AA
:1029200091FA0220FFF748FABC48FFF78BFABC4C3B
:102930007D2020602068002823D06420FFF78EFFD0
:10294000B8480178002904D0390001702068401E81
:1029500020602068012802D138009E490870B24DDD
:10296000B2A12800FFF740FE002801D02760E1E770
:10297000AF492800FFF738FE0028DBD0FFF75CFFE7
:10298000D8E7AC48FFF75EFA0220FFF715FA5020AF
:102990002060206800283AD06420FFF75FFFA1483C
:1029A0000178002904D0390001702068401E2060A1
:1029B0002068012802D13800864908709A4D9E4946
:1029C0002800FFF711FE0190002817D00198401D44
:1029D00001909AA52900019800F0E2FE0600290066
:1029E000002000F0DDFE0190954D019800F09FFE63
:1029F000286028680028CCD02760CAE791492800C1
:102A0000FFF7F2FD0028C4D0FFF716FFC1E78E489C
:102A10008B4908600097502020608C48FFF712FA1D
:102A20000220FFF7C9F9206800281ED07D480178F0
:102A3000002904D0390001702068401E2060206801
:102A4000012802D138006349087086497648FFF7AB
:102A5000CBFD01900028E6D00198801D01902760F1
:102A6000019800F064FE0090DDE7FB20000480493F
:102A7000086038007C49088038007C4908703800BC
:102A80007C49087001209F4908706D480068002843
:102A900000D1BAE0FA208000FFF7E0FE7648036834
:102AA000009A764903A800F05BFE03A8FFF7CAF975
:102AB0000220FFF781F962480068714988420DD30E
:102AC00080239B01009A6F4903A800F049FE03A8E8
:102AD000FFF7B8F90CE000BF6C37002058480368D6
:102AE000009A684903A800F03BFE03A8FFF7AAF983
:102AF0003800654908701E20644908700120644947
:102B00000870624800780028BFD046480178002944
:102B100006D0390001705D480078401E5B4908709E
:102B200059480078002805D15A495B48FFF75CFDF9
:102B30000028E6D03220FFF791FE584D564E29006E
:102B40003000FFF751FD040029002000FFF74CFD85
:102B5000002805D00834200000F0E9FD5049088025
:102B600050A12000FFF740FD801C0290380046492C
:102B700008703F48006800F0A2FE3D4800688021D0
:102B80004901401800F09BFE8025AD01280002009D
:102B900037480168029800F0DDFE3800424908809D
:102BA00027480068A84219D23A493000FFF71CFDB7
:102BB000002813D03220FFF751FE00F07BF8924836
:102BC0000078002801D000F009FC314807701CE0B3
:102BD0007C3700207E370020846D0008184801688B
:102BE000324A891801603800284908702248016873
:102BF000491901601E480168491901603C00220022
:102C00002900300000F0ACFC7BE711B0F0BD00BF44
:102C1000A0340020BC6C0008E06F0008946D000830
:102C20000000002069370020A03000204F4B00003A
:102C3000E86F0008C46B0008F06F00082C0000006B
:102C400040370020F86F00083D800100FC6B000851
:102C500080B5452203211648FFF7F8FDFFF7ECFD8C
:102C600001BD000000700008603700207B370020A5
:102C7000343700208237002044370020D06C000811
:102C800001200000A46D0008763700207237002074
:102C900075370020846E000894000020087000083A
:102CA0005C3700200D0A00005837002000E0FFFFCD
:102CB00000280040F8B586B00020124908700020B6
:102CC00051490870012051490870002069468880E8
:102CD00000260020694648700020694608700020E0
:102CE0006946C87100206946887101206946C8702C
:102CF0000024002046490860FB2000044549086084
:102D0000454F01E065370020F02000043860434D56
:102D100000202880288840280EDA386800F0CFFD8F
:102D20000A20FFF79BFD2888401C288038688021F6
:102D3000490140183860EDE700206946888038482E
:102D4000694608816846C078002800D11DE30A2042
:102D5000FFF784FD6420059000200490314E049A12
:102D60000599300000F0FCFB04222A48016803A802
:102D700000F0C2FD2CA103A8FFF736FC06000028D6
:102D800000D0761C3078302805DB30783A2802DA1B
:102D9000307830380AE03078412805DB3078472831
:102DA00002DA3078373801E03078573871783029D6
:102DB00005DB71783A2902DA717830390AE07178E6
:102DC000412905DB7178472902DA7178373901E04A
:102DD000717857390001401869460870114C6846EF
:102DE000007840000D30020092B20A4801682000CD
:102DF00000F082FD0020288028881E281BDA207819
:102E00003A2813D1641C16E0783700207737002069
:102E10003837002024370020343700205A3700206C
:102E2000FFFF0000243600203A0000002888401CE4
:102E30002880641CE0E728881E2802D1012069460A
:102E40008871002C00D162E22078302805DB2078E0
:102E50003A2802DA207830380AE02078412805DB69
:102E60002078472802DA2078373801E02078573870
:102E70006178302905DB61783A2902DA61783039E6
:102E80000AE06178412905DB6178472902DA617837
:102E9000373901E0617857390001401869460870F8
:102EA000A01C694609780278302A05DB02783A2AA4
:102EB00002DA0278303A0AE00278412A05DB027829
:102EC000472A02DA0278373A01E00278573A437823
:102ED000302B05DB43783A2B02DA4378303B0AE0AB
:102EE0004378412B05DB4378472B02DA4378373BA5
:102EF00001E04378573B1201D2183A60801C3A68CF
:102F00008A180178302905DB01783A2902DA01783C
:102F100030390AE00178412905DB0178472902DAD6
:102F20000178373901E0017857394378302B05DBD8
:102F300043783A2B02DA4378303B0AE04378412B5E
:102F400005DB4378472B02DA4378373B01E04378CF
:102F5000573B0901C9183960811C38681018091FCE
:102F60000A78302A05DB0A783A2A02DA0E78303EEF
:102F70000AE00A78412A05DB0A78472A02DA0E7845
:102F8000373E01E00E78573E4A78302A05DB4A7812
:102F90003A2A02DA4C78303C0AE04A78412A05DBCA
:102FA0004A78472A02DA4C78373C01E04C78573CA3
:102FB0008A78302A05DB8A783A2A02DA8A78303A27
:102FC0000AE08A78412A05DB8A78472A02DA8A7879
:102FD000373A01E08A78573ACB78302B05DBCB784B
:102FE0003A2B02DACB78303B0AE0CB78412B05DB79
:102FF000CB78472B02DACB78373B01E0CB78573BD5
:103000003603240234191201A218D2186B469A8092
:10301000B34A13686C46A4881B19F02424041B19B6
:103020003B603B68AF4C1B193B60091D0B78302B94
:1030300005DB0B783A2B02DA0B78303B0AE00B7891
:10304000412B05DB0B78472B02DA0B78373B01E08D
:103050000B78573B4C78302C05DB4C783A2C02DA55
:103060004C78303C0AE04C78412C05DB4C78472CFE
:1030700002DA4C78373C01E04C78573C1B011B19B5
:103080006C46A370891C6B469B78C0186B465870C1
:1030900068468078042871D10878302805DB0878E4
:1030A0003A2802DA087830380AE00878412805DB47
:1030B0000878472802DA0878373801E00878573866
:1030C0004B78302B05DB4B783A2B02DA4B78303BD0
:1030D0000AE04B78412B05DB4B78472B02DA4B7823
:1030E000373B01E04B78573B0001C0183860386827
:1030F000000310608C1C2078302805DB20783A28EB
:1031000002DA207830380AE02078412805DB207880
:10311000472802DA2078373801E02078573861787C
:10312000302905DB61783A2902DA617830390AE022
:103130006178412905DB6178472902DA61783739FE
:1031400001E06178573900014018386038680001A3
:10315000386010683968401810601068000310600B
:103160001068F8210906401810609A4801686A46FC
:103170001278520089180D310160E3E500202880A3
:1031800028886A46127892B2904238D2087830285D
:1031900005DB08783A2802DA087830380AE008783F
:1031A000412805DB0878472802DA0878373801E03B
:1031B000087857384A78302A05DB4A783A2A02DA02
:1031C0004B78303B0AE04A78412A05DB4A78472AA7
:1031D00002DA4B78373B01E04B78573B7E4A0001DF
:1031E000C0182B88D054891C684640782B88D25C44
:1031F00080186A4650702888401C2880C0E70878EC
:10320000302805DB08783A2802DA087830380AE0F6
:103210000878412805DB0878472802DA087837382B
:1032200001E0087857384A78302A05DB4A783A2A8C
:1032300002DA4A78303A0AE04A78412A05DB4A78CD
:10324000472A02DA4A78373A01E04A78573A0001C9
:1032500080186A46D0718C1C6846407841426846A6
:10326000417068468078002817D1684640786946E2
:10327000C97988420BD16846027892B239685648BB
:1032800000F068FBA1480168491C016005E00020CE
:103290006946C870012069468871684680780028B0
:1032A00035D1684600899A4988420DD168468088A0
:1032B00080210902884204D16846808869460881D5
:1032C00025E0FFF7C5FC22E0684600899149884265
:1032D0000FD168468088002806D0FFF7B9FC16E0B9
:1032E000303700200080FFFF6846808869460881EB
:1032F0000DE06846808869460989401A102804D183
:10330000684680886946088101E0FFF7A1FC2078C3
:103310000D282CD16846007800281CD16846C07959
:10332000FF2818D168468078012814D1002069460A
:10333000C8700020784908700120784908707848E2
:10334000007800024421014329802A88042175481D
:10335000FFF77CFA11E001206946C8701D4801683A
:103360006A461278520089180D31016005E000208C
:103370006946C8700120694688716B480178012947
:1033800000D0DFE400210170DCE43220FFF766FAB0
:103390006846807900281BD06448007853280ED0F6
:1033A0000920FFF763F95E480078000245210143D8
:1033B00029802A8804215B48FFF748FA06E05C4828
:1033C00028802A8804215748FFF740FAFFF734FA8B
:1033D00007B0F0BD2437002010370020F0B5554C61
:1033E000A54400205449087000204B490870012072
:1033F0004A49087000F06EFB504D514E2E6028680F
:10340000504988420ED248480178012901D1002153
:103410000170286800F012FD286880210901401819
:103420002860ECE70020484908602E60F020000486
:10343000464908600020464908808026360132004F
:103440004248016801A800F057FA0027380004003C
:10345000200000B2B04220D201A8210009B24118D8
:1034600049780902220012B2805C0143684601805B
:1034700068460188286800F06DFB2868801C286079
:10348000641C31480168491C016000681F490968D3
:10349000C900884201D2641CDAE72C480168891906
:1034A00001602948006819490968C900884224D385
:1034B00000F025FB1D4850210170027804211948B5
:1034C000FFF7C4F9FA208000FFF7C8F92148077018
:1034D00000F000FB00F01AFB00F0A0FBBB2000F0A6
:1034E0005BFC1D4800F0D0FB00F01EFB00F007FB6A
:1034F00000F022FBFFF7A0F904E015480188491C01
:1035000001809AE715488544F0BD00003837002057
:10351000FFFF0000F0FF0000773700207837002021
:103520008037002000280040693700207F370020C6
:1035300045FF0000FCEFFFFF653700203437002017
:1035400000800008FFF3FF073C37002024370020ED
:103550005A3700206D370020FF00FF0004100000E4
:103560001206130A1A43130C1A4300BF094205D06E
:10357000830705D00270401C491EF9D17047000036
:103580001300103906D330B41400150010393CC0B4
:10359000FCD230BC490700D30CC000D504C0890060
:1035A00002D30280801C002900D502707047FEE71C
:1035B00080B508490A680092009A0022D2439042DE
:1035C00000D0401C002804D00A68D203FAD5401E5F
:1035D000F8E701BD10E000E0FCB587B00C00150075
:1035E000002B01D0002119600390064600E0761CF4
:1035F000307800F045FC0028F9D1300001782D2901
:1036000001D02B2903D16A461170401C02E02B2106
:103610006A4611700194002D03D4012D01D0252D8F
:1036200004DB002C54D00398206051E0002D0ADD0B
:10363000102D16D10178302913D1417820220A4368
:10364000782A0ED10AE00178302901D00A2508E055
:10365000417820220A43782A02D11025801C00E0FC
:103660000825069000E0401C01783029FBD000249A
:1036700005902B4A7A44A83228326B465A7002953C
:10368000049F05000494264E7E44943608E004947A
:1036900069464978471AFFB202984443E4196D1C01
:1036A000287800F0F6FB029A010030002830FDF780
:1036B000FDFC0028EBD1029938002F00049D069AEA
:1036C000BA4207D10198002802D0039801990860F6
:1036D000002022E0059ABA1A735CD21A002A11D48B
:1036E00005DC201A03D3FDF7C4FEA8420AD000BFB0
:1036F00000BF0898002802D0012008990860002423
:10370000E44305E0684600782D2801D160420400BA
:103710000198002800D00760200009B0F0BD00BF6C
:103720008432000080B50023FFF756FF02BD80B54C
:10373000FFE70A220021FFF7F5FF02BD10B50400E4
:10374000FEF730F8010020008969884710BD10B5E8
:103750000400FEF727F801002000C96A884710BD61
:103760000CB418B583B004000A0006A802900194B6
:103770000020009002AB01A9084878441E30FCF7F5
:10378000A1FC0021019A1170002801D40198001BAE
:1037900004B0019910BC03B0084700BF9BD8FFFFDD
:1037A00038B505000AD00C00280000F07BFB2D186E
:1037B0002878002808D10C49086032BD0A480568FD
:1037C000002DF0D1002032BD2100280000F07CFB4C
:1037D00028180178002902D000210170401C0249FC
:1037E0000860280032BD00BF503700201CB5684675
:1037F000B5490A7802708024240253480460642387
:1038000001226946514800F0F7FB51480460052049
:10381000FFF724F813BDF8B504000F001500FFF7FB
:10382000E5FF8026360248480660022000F03AF89C
:103830003800000CC0B200F035F8380AC0B200F011
:1038400031F83800C0B200F02DF82800451E80B2D3
:10385000002804D0207800F025F8641CF5E73C48E7
:10386000066000F001F8F1BD70B500242500802647
:10387000360235480660052000F014F8FF2000F0FD
:1038800011F8050000BF00BF00BF2800C0B200282B
:1038900001D0012000E02000C0B20028EED12C4869
:1038A000066070BD01B582B00A200090012301AA14
:1038B00002A9264800F096FC684600790EBD38B58E
:1038C0000400FFF793FF80252D021F48056020208C
:1038D000FFF7E8FF2000000CC0B2FFF7E3FF200A6B
:1038E000C0B2FFF7DFFF2000C0B2FFF7DBFF1848D0
:1038F0000560FFF7B9FF31BDF8B504000F001500F2
:1039000080263602104806600320FFF7CBFF380000
:10391000000CC0B2FFF7C6FF380AC0B2FFF7C2FF03
:103920003800C0B2FFF7BEFF2800451E80B2002855
:1039300005D0FF20FFF7B6FF2070641CF4E70448B1
:103940000660F1BD00000000280000488836002015
:1039500018000048F7B505000C00002368464370C6
:10396000180019001A006E46F37080231B02574E90
:10397000336023006E46B3706B469B785E426B46A5
:103980001E706B461B891E00B6B2360A6B461B8939
:103990006F467B706B469B78002B28D13000C0B2FD
:1039A000002806D16846028921002800FFF733FF6E
:1039B00084E03000461EC0B200280CD080277F0073
:1039C0003800020021002800FFF725FFE4198020BD
:1039D00040002D18EDE76846407800286ED0684614
:1039E000427892B221002800FFF715FF66E0300010
:1039F000C0B2002828D168460078694649788842D4
:103A00001BD26846407869460978401A6946C870F2
:103A10006846027892B221002800FFF7FCFE684653
:103A200000782418684600782D186846C27892B24B
:103A300021002800FFF7EFFE40E0684602892100E0
:103A40002800FFF7E8FE39E06846008969460978F2
:103A5000401A694608816846008980B2000A06005B
:103A600068460089694648706846027892B221002B
:103A70002800FFF7D0FE68460078241868460078D2
:103A80002D183000461EC0B200280CD080277F00C1
:103A90003800020021002800FFF7BDFEE419802055
:103AA00040002D18EDE768464078002806D06846AB
:103AB000427892B221002800FFF7ADFE802000027C
:103AC00003490860F7BD0000327100082800004873
:103AD0001800004810B500208021484A13680B40A8
:103AE000002B0AD0474B484C1C60484C1C601268A5
:103AF0001140002901D001210800C0B210BD3F488B
:103B0000016880220A4302600020704700B53B48EC
:103B10000068800506D43E483B4901603B4901608E
:103B2000002000E0012000BD34480168394A0A4005
:103B3000026000207047000080B530480168802294
:103B400092010A430260024800F010F802BD000032
:103B500050C3000010B400222F4BDA61274A1368CB
:103B600001241C431460018010BC704738B5040068
:103B700000F09CFD050022480168C9070CD5002013
:103B8000C0438442F7D0002C04D000F08FFD401BCE
:103B90008442F0D2032010E0202102680A40002A6B
:103BA00000D001600168C90602D40068400703D54F
:103BB00000F004F8012000E0002032BD30B5002004
:103BC00010220F490B681340002B07D0124BDC6901
:103BD00002252543DD6103001000184304230A6811
:103BE0001A40002A07D00C4AD46901252543D56123
:103BF000020018001043086030BD00001020024091
:103C00000C2002400420024023016745AB89EFCD20
:103C100008200240FFFDFFFFF0360020F8B5AA277C
:103C2000012400F0F6F869460870154D2800FFF7EA
:103C30009DFF06003000C0B200281CD100200F49B3
:103C4000C861104C20682021014321602068402178
:103C5000014321602800FFF789FF0600206820212A
:103C6000884320603000C0B2002804D16846007844
:103C700000F092F806003000C0B2F2BDF03600202D
:103C800050C3000010200240FEB5040000263000A2
:103C9000694608725C486946C880694688806946FA
:103CA00048806946088000F0B1F8A043070038005A
:103CB000C0B26946C880380AC0B2694688803800F8
:103CC000000CC0B269464880380E69460880584CDE
:103CD0002000FFF74BFF05002800C0B2002855D197
:103CE0005448C661FFF79AFF05002800C0B20028BB
:103CF0004CD1284E30681021014331606846C0889D
:103D0000FF2809D04C4801886A46D2880A400280C0
:103D10002000FFF72BFF05002800C0B200280DD1BE
:103D200068468088FF2809D04C4801886A469288F6
:103D30000A4002802000FFF719FF05002800C0B2EA
:103D400000280DD168464088FF2809D044480188E2
:103D50006A4652880A4002802000FFF707FF0500EC
:103D60002800C0B200280DD168460088FF2809D07D
:103D70003C4801886A4612880A4002802000FFF70A
:103D8000F5FE050030681021884330602800C0B27D
:103D9000FEBD000010200240F1B500242700244D94
:103DA0002800FFF7E3FE06003000C0B2002826D14D
:103DB0002048C4612C4C20682021014321602068E8
:103DC0004021014321602800FFF7D0FE0600206853
:103DD0002021884320603000C0B200280FD1206825
:103DE000102101432160684600782049088028009E
:103DF000FFF7BCFE060020681021884320603000D9
:103E0000C0B2F2BD00000000FFFF000018480068CB
:103E1000704700B51748006806210140002901D10C
:103E2000AA2004E0480701D5CC2000E0BB2000BD5B
:103E300050C30000F036002008F8FF1F00210E4A92
:103E4000D16109490A68022313430B600B4A1060D1
:103E50000A68402313430B60704700000AF8FF1FF5
:103E60000CF8FF1F0EF8FF1F1020024000F8FF1F84
:103E7000202002401C200240F03600201420024086
:103E800010B50400FDF78EFC01002000096A884788
:103E900010BD10B50400FDF785FC01002000896A03
:103EA000884710BD30B4020000E0521C1378002B8C
:103EB00007D00D0002E0A342F7D06D1C2C78002C37
:103EC000F9D1101A30BC704730B4020006E0A542A8
:103ED00009D05B1C1C78002CF9D1521C1578002DE0
:103EE00001D00B00F6E7101A30BC7047F8B504009B
:103EF000002C01D101207EE0606A002807D16068B3
:103F000082214900884205D00020E06102E00020C3
:103F1000206160610025A5625D20205C002805D13C
:103F200028005C216054200000F0EEFB022001001C
:103F30005D22A154216809684022914322681160E2
:103F4000E168A64A914201D3290001E0802149019C
:103F5000F0221201E368934205D0E368E026F60000
:103F6000B34200D0A5620123666882277F003740F4
:103F7000BC46A768842636023E4067463E43276912
:103F80003840304366691E400643A0698027BF0061
:103F900038403043277F38263E4006432020205CAF
:103FA000802738403043A66A8027BF013E40064341
:103FB00020680660A069060C042006402420205CCE
:103FC0001027384030433426A65D08273E4006437C
:103FD000E0680240324380204001084010432268DC
:103FE00050602068C0697E4A02402068C261256630
:103FF0005D2023540020F2BDFFB583B004000026ED
:104000003000694608705C20205C012801D1022044
:10401000E0E0012528005C21605400F047FB02909D
:104020006846808A694648805D20205C012803D06C
:10403000022069460870C9E00498002803D0684649
:10404000808A002802D168460570BFE003275D2002
:10405000275426660498A0636846808AA08768462D
:10406000808AE08726643000442160523000462177
:1040700060522665E664A0688021090288420CD15E
:104080002068006840218843216808602068006833
:104090008021C9010143206801604020216809682E
:1040A0000140002904D1216809680843216808609B
:1040B000E0684A49884236D36068002803D06846E1
:1040C0004088012809D1A06B00882168C860A06BD6
:1040D000801CA063E08F401EE087E08F002859D04D
:1040E0002068806880070AD5A06B00882168C860B6
:1040F000A06B801CA063E08F401EE087EDE700F01E
:10410000D5FA0299401A0699884204D306980021EC
:10411000C943884202D106980028DED1684607705C
:104120005D20255452E06068002803D0684640882E
:10413000012809D1A06B007821680873A06B401C8E
:10414000A063E08F401EE087E08F002822D0206827
:10415000806880070AD5A06B007821680873A06B7F
:10416000401CA063E08F401EE087EDE700F09EFA60
:104170000299401A0699884204D306980021C9433F
:10418000884202D106980028DED1684607705D207B
:1041900025541BE0029A0699200000F051FA0028ED
:1041A00001D020202066A068002807D10196206851
:1041B000C06801902068806801900198206E0028F6
:1041C00002D06846057001E05D2025545C2026542D
:1041D0006846007807B0F0BD00000000010700004D
:1041E000FFF7FFFFFEB584B004000C9F0125019589
:1041F00000263000694608705C20205C012801D14F
:10420000022031E128005C21605400F04FFA029056
:104210005D20205C69464870606803906846008BAA
:10422000694648806846407801280FD0039882216B
:104230004900884206D1A068002803D1684640782A
:10424000042803D002206946087009E10498002878
:1042500006D00598002803D06846008B002802D1BC
:1042600068460570FCE05D20205C042802D0052033
:104270005D2160542666059820646846008B4621BF
:1042800060526846008B442160520498A0636846DF
:10429000008BE0876846008BA087E66426650148AE
:1042A00002E000BF01070000E168814206D32168F7
:1042B00049686E4A0A4021684A6006E021684968F8
:1042C000802252010A4321684A6040212268126814
:1042D0000A40002A04D12268126811432268116042
:1042E000E168814253D36068002803D06846408863
:1042F000012809D1A06B00882168C860A06B801CD0
:10430000A063E08F401EE087E08F002804D14620A4
:10431000205A002800D18FE020688068800710D5DF
:10432000E08F00280DD0019801280AD1A06B0088E9
:104330002168C860A06B801CA063E08F401EE087EE
:104340000196206880682840002810D04620205A16
:1043500000280CD02068C068216C0880206C801C6C
:1043600020644620205A401E46216052019500F0EC
:104370009DF90299401AB842C6D30020C043874233
:10438000C2D00320694608705D20255468E060684B
:10439000002803D068464088012809D1A06B007826
:1043A00021680873A06B401CA063E08F401EE0876B
:1043B000E08F002803D14620205A00283CD02068F6
:1043C0008068800710D5E08F00280DD00198012863
:1043D0000AD1A06B007821680873A06B401CA06311
:1043E000E08F401EE0870196206880682840002802
:1043F00010D04620205A00280CD02068007B216C69
:104400000870206C401C20644620205A401E462123
:104410006052019500F04AF90299401AB84203D35C
:104420000020C043874201D1002FC1D1032069463B
:1044300008705D20255413E0029A3900200000F036
:10444000FFF8002804D02800694608702020206664
:10445000206E002802D06846057001E05D202554DA
:104460005C2026546846007807B0F0BDFFEFFFFFE0
:10447000FFB581B004000A9F049D00F017F9281AC7
:10448000C51900F013F906006B4800684001000DE3
:104490006843009020688068029901400298814238
:1044A00001D1012000E000206946097B884247D005
:1044B00004980021C9438842ECD000F0F7F8801B33
:1044C000A84201D2002D32D120684068E021884303
:1044D0002168486060688221490088420FD1A06845
:1044E00080210902884204D0A0688021C900884246
:1044F00005D1206800684021884321680860802039
:104500008001A16A81420AD1216809684B4A0A40A8
:1045100021680A6021680968084321680860012051
:104520005D21605400205C216054032009E0009864
:10453000002801D1002005000098401E0090A9E746
:10454000002005B0F0BDFFB583B0040000252800B1
:1045500069460870069E00F0A9F8301A0C994618B2
:1045600000F0A4F8070020680C3002903248006880
:1045700023214843000D704301902068806804990E
:1045800001400598814253D00498C021C900884257
:1045900008D10598002805D102980078694608706E
:1045A0006846007806980021C9438842E5D000F0AB
:1045B0007DF8C01BB04201D2002E31D12068406886
:1045C000E021884321684860606882214900884270
:1045D0000FD1A06880210902884204D0A068802100
:1045E000C900884205D120680068402188432168BD
:1045F000086080208001A16A81420AD1216809688F
:104600000E4A0A4021680A60216809680843216847
:10461000086001205D2160545C202554032008E0DF
:104620000198002800D12E000198401E0190A4E7B7
:10463000002007B0F0BD000008000020FFDFFFFFF2
:104640007CB504000E001500009533000022C02147
:1046500049012000FFF777FF002805D0206E2021B8
:104660000143216603201FE00095330000228021D2
:104670002000FFF7FDFE002805D0206E2021014319
:104680002166032010E0009533000022C021C900FC
:104690002000FFF758FF002805D0206E202101439D
:1046A0002166032000E0002076BDFEE70148006897
:1046B000704700BF4C37002080B5802000023D4984
:1046C00008603D483D490160822149004160002168
:1046D0008160E022D200C2600222026101224261B6
:1046E0008022920082613822C2610162416281624D
:1046F0000722C262016308214163FFF7F7FB00282C
:1047000001D000F059F901BD70B586B00400142144
:1047100000252A006E463000FEF722FF2068274958
:10472000884220D18020400126490A6802430A605D
:1047300009680840059005988020C00222490A684F
:1047400002430A60096808400590059838200090E7
:1047500002200190029503200390049569461B48AE
:1047600000F02EF924E020681549884220D18020ED
:10477000C00117490A6802430A60096808400590A9
:1047800005988020C00210490A6802430A6009683F
:10479000084005900598E02000020090022001905A
:1047A00002950320039004956946084800F008F933
:1047B00006B070BD28000048883600200030014057
:1047C0000038004018100240141002400004004855
:1047D0001C10024000B5BFF34F8F6948694908605B
:1047E000BFF34F8F00BFFDE710B4030050338C00C0
:1047F0001B191A6010BC704710B500F0DDF900F00D
:1048000078F800F0F6F900F09AFA00F073FBFFF781
:1048100053FF00F0F0FB5C4800886421FCF726FEA3
:104820000029F8D159480078002802D001280DD07D
:1048300040E057480078002801D000F0BFFC554800
:104840000078012801D1FDF70FF8E4E7524C2078F9
:104850000B281EDB207814281BDA0020FDF706FF4A
:104860000A2020704D48492101704D4922781202DA
:10487000007802430A804B4C0A8803212000FFF78E
:10488000B3FF302201212000FFF7AEFFFFF7A2FFA8
:104890000FE045480078002802D0FDF7F1FF08E05E
:1048A00042480078002801D000BF02E02078401C78
:1048B0002070B0E7384C20780A2803DA3C480078AA
:1048C0000A2812DB0020FDF7D1FE34485021017088
:1048D000334922781202007802430A800A880321B1
:1048E0003048FFF781FFFFF775FF2078401C2070EC
:1048F00091E738B598B03421002422000BAD280090
:10490000FEF72EFE102122006D462800FEF728FE3D
:104910001C21220004AD2800FEF722FE09200B9086
:1049200001200C90129002251495802040021590D1
:1049300080200003169017940BA800F0B1FC00280B
:1049400001D000F039F807200090019502940394FB
:104950000121684600F054FF002801D000F02CF837
:1049600014480490069480208000059004A801F06B
:104970004FF8002801D000F01FF819B030BD00003A
:104980000400FA050CED00E08C0000206E370020DA
:104990006937002067370020803700207F370020EC
:1049A0005A3700200028004074370020623700206A
:1049B000733700200100010000B572B6FEE7FEE784
:1049C000FEB500220B68D340002B00D1DEE00123AE
:1049D0000C681D00954025400195019C002C00D1DC
:1049E000D2E003244D682540012D03D04D682540B9
:1049F000022D19D1866815006F002500BD40AE4319
:104A0000CD6817007F00BD4035430095009D85604F
:104A100046681D009540AE434D682D091D409540E8
:104A200035430095009D45604D682540032D0DD010
:104A3000C66815006F002500BD40AE438D681700A5
:104A40007F00BD4035430095009DC5604D68254001
:104A5000022D1CD1D508AD0045192D6A00951C25E5
:104A6000009EB4460F271600B6002E40B74066469B
:104A7000BE43B4460E691700BF003D40AE406546D8
:104A80002E430096D508AD004519009E2E6206689B
:104A900015006F002500BD40AE434D68254017004E
:104AA0007F00BD4035430095009D05604D68C026E0
:104AB000B6022E40002E67D0354D2E681E432E6064
:104AC0002D681D400295029D324D9608B600AE59E4
:104AD00000960F27BC461600B7000C263E406746DE
:104AE000B740009EBE439027FF05B84201D1002386
:104AF00012E0294FB8420FD0284B984201D102232F
:104B00000AE0274B984201D1230005E0254B98424B
:104B100001D1042300E005231400A4000C27274042
:104B2000BB4033439408A4002B511F4D2C68019EB9
:104B3000B4434E68F60202D52300019C1C432C604E
:104B40001A4D2B68019EB3434E68B60202D51C0075
:104B5000019B23432B60164D2C68019EB4434E6885
:104B6000B60302D52300019C1C432C60114B1D6829
:104B7000019EB54300954D68ED0303D5009C019D52
:104B800025430095009C1C60521C1BE7F7BD0000EC
:104B900018100240080001400004004800080048C6
:104BA000000C004800100048080401400C040140BB
:104BB000040401400004014080B506480168102249
:104BC0000A430260032000F0DDFF01F003F800203B
:104BD00002BD0000002002408161704781B042495F
:104BE0000A6802430A60096801400091009901B017
:104BF0007047F8B586B01821002422006D462800C1
:104C0000FEF7AEFC8020C003FFF7E8FF8020C00263
:104C1000FFF7E4FF80200003FFF7E0FF8020800221
:104C2000FFF7DCFF80204003FFF7D8FF8020000261
:104C30000090012501950294039404946946902004
:104C4000C00501F03EF840200090019502940394C5
:104C50000494264E6946300001F033F8802000901D
:104C600001950294039404946946300001F029F8F8
:104C700080200001009001950294039404946946F9
:104C8000300001F01EF88020400100900195029450
:104C9000039404946946300001F013F80420009056
:104CA0000195029403940494114F6946380001F071
:104CB00008F8802040000090019502940394049429
:104CC00069460C4800F0FDFF802109013000FFF724
:104CD00083FF802149013000FFF77EFF0421380067
:104CE000FFF77AFF07B0F0BD14100240000800483B
:104CF000000C0048000400480269394B13400A04C4
:104D00001A43026170470269D20BD2030A4302615F
:104D1000704710B4030050338C001B191A6010BC8C
:104D200070470200100050308B00C01800687047B8
:104D30002C480168802212020A430260704770B555
:104D400086B00C210024220003AD2800FEF708FCE9
:104D50000821220001AD2800FEF702FC04212200F8
:104D60006D462800FEF7FCFBFFF7E2FF03947F206F
:104D70000490FF2005901C4D03A9280001F056F86F
:104D80007F212800FFF7B8FFFF212800FFF7BBFFB6
:104D9000164E00212800FFF7C4FFB0421DD001A825
:104DA00021000171210041712100817101AA0121BD
:104DB000280001F05EF80120694602000A70020036
:104DC0004A708870CC706A460121280001F0C3F84F
:104DD000320000212800FFF79CFF06B070BD0000E4
:104DE000FFFF80FF2010024000280040F232000048
:104DF00000B5010049B2002905D40121C206D20E36
:104E00009140684A116000BDF0B5020052B2002A1C
:104E100017D41822644B040064B2A408A4001C59DF
:104E2000FF25C6001640B540AC438D01EDB2C6006B
:104E3000324095402543020052B2920892009D50A4
:104E40001BE00F22594B182405006DB21540083D98
:104E5000AD08AE0005006DB22A40083A92089200F3
:104E60009A58FF25C7002740BD40AA438D01EDB2E7
:104E7000C7003C40A54015439D51F0BD016801228B
:104E80000A43026070474168494A0A4042608168AB
:104E90002A22914381607047EFF31081012282F34F
:104EA0001088026820231343036081F31088704741
:104EB000EFF31081012282F3108882683D4B13408A
:104EC000836081F31088704781B03B490A680243D0
:104ED0000A60096801400091009901B0704781B0F3
:104EE00036490A6802430A60096801400091009946
:104EF00001B07047F0B58DB01C210024220006AD32
:104F00002800FEF72DFB182122006D462800FEF731
:104F100027FB8020C001FFF7E2FF80208002FFF71F
:104F2000D3FF80208000009002270197032602967D
:104F3000039404940125059569469020C00500F06E
:104F4000C0FE8020C0000090019702960394049454
:104F5000059569469020C00500F0B3FE00211B2096
:104F6000FFF752FF1B20FFF743FFE12040020690AE
:104F70000794089409940C200A900B940C94104CFC
:104F800006A9200001F0DEF82000FFF791FF2000C5
:104F9000FFF779FF2000FFF771FF2000FFF77CFF8C
:104FA0000DB0F0BD00E100E000E400E01CED00E029
:104FB000FFB7FFFFFFFBFFFF141002401810024075
:104FC0000038014000B5BFF34F8F7A488F49086021
:104FD000BFF34F8F00BFFDE710B4030050338C00C8
:104FE0001B191A6010BC70470200100050308B0073
:104FF000C01800687047FEB58020400084490860F2
:105000006D4E04218348FFF7EFFF3070824F04217B
:105010008048FFF7E9FF000A3870804C8049200083
:10502000FEF79EFB7F4D80492800FEF799FB7F49E4
:1050300020004630FEF794FB2000463000902B0005
:1050400022007B4920005A30FEF78AFB794800781D
:10505000032802DB002077490870002528007649E4
:1050600008702800754908702800754908700124E7
:105070007448047019207449087028007349087036
:105080003078452802D13878FF2802D0307850286F
:1050900000D13BE03078492802D03078532801D144
:1050A0006B4804703078532803D180204000584961
:1050B000086067480078012811D138780A280EDA8C
:1050C00028006449087064483978090249220A4373
:1050D0000280028804214F48FFF77EFF4DE03078C0
:1050E00045280DD15C483978090249220A430280DB
:1050F000028804214748FFF76FFFFFF763FF3CE09A
:105100003078522802D15548047036E0544801687E
:10511000544A0A40802189058A420CD15249534A97
:1051200012680A60524A09681160006880F30888B2
:105130001068804721E0307844280CD10520387071
:105140002800434908702800444908704148047009
:105150003848047011E040483978090249220A436E
:105160000280028804212B48FFF736FF4148047073
:10517000280030490870364804703078532817D119
:105180003878801C38703C4C01953C4E019A2100C7
:105190003000FEF7E5F928003949088032260095ED
:1051A000384F009A31003800FEF7DAF936480560CA
:1051B000F7BD00000400FA057F37002038B5002451
:1051C000200032490870324D2878002802D0287813
:1051D000401E28702878002817D02878062814DA6E
:1051E0002878052802D12BA0FCF72CFE2A49254857
:1051F000FDF7FAF9002802D12878012805D101200D
:105200000D4908702C702549087031BD0CED00E087
:10521000280400480028004080370020A0340020E7
:10522000F46D0008B4340020E07000085C6F0008E2
:10523000346D00086E370020673700207C3700206F
:105240007E370020663700208F0000208237002044
:1052500074370020783700205A3700207737002035
:10526000008000080000FE2F28370020048000087E
:105270002C370020793700200C30000094000020EB
:1052800058370020A0300020483700206937002020
:105290008E00002041540000E870000864370020B0
:1052A000F8B584B00400002C01D101209EE22078E2
:1052B000C00768D50C20B8490A680240042A0BD000
:1052C0000A681040082810D10868C021490201402E
:1052D00080204002814208D1B0480068800352D546
:1052E000606800284FD1012080E26068012806D163
:1052F000AA480168802252020A43026024E06068E2
:10530000002809D1A5480168A54A0A400260016841
:10531000A44A0A40026017E0606805280BD19F4844
:1053200001688022D2020A43026001688022520290
:105330000A43026008E099480168994A0A400260FD
:105340000168984A0A400260606800280DD0FFF7A3
:10535000ADF9050091480068800314D4FFF7A6F961
:10536000401B6528F6D3032040E2FFF79FF90500B4
:105370008A480068800306D5FFF798F9401B652826
:10538000F6D3032032E2022620683040002854D0B1
:105390000C2081490A680240002A0BD00A6810409C
:1053A000082819D10868C021490201408020000264
:1053B000814211D1794801683140002904D0E16867
:1053C000012901D0012011E20168F82291432269EC
:1053D000D2000A43026030E0E06800281AD06F4F24
:1053E0003868012101433960FFF760F9050038682A
:1053F0003040002806D1FFF759F9401B0328F6D3A7
:105400000320F3E13868F82188432169C90001438A
:10541000396012E0614F3868012188433860FFF736
:1054200045F9050038683040002806D0FFF73EF9FE
:10543000401B0328F6D30320D8E12078000728D5A5
:10544000E069002812D0A94F386801210143396072
:10545000FFF72CF9050038683040002819D1FFF714
:1054600025F9401B0328F6D30320BFE19F4F38687E
:10547000012188433860FFF719F90500386830408A
:10548000002806D0FFF712F9401B0328F6D30320AB
:10549000ACE1042720683840002800D18DE00020CE
:1054A0006946087080204005BD490968014000290F
:1054B0000AD1BB490A6802430A60096808400390A0
:1054C0000398012069460870B6480068C00514D4E6
:1054D000B4480068802149000143B2480160FFF7E9
:1054E000E5F80500AF480068C00506D4FFF7DEF810
:1054F000401B6528F6D3032078E1A068012805D178
:10550000BB48016801220A43026021E0A06800282C
:1055100009D1B74801680122914301600168042262
:105520009143016014E0A068052808D1B0480168E3
:1055300039430160016801220A43026008E0AC4877
:1055400001680122914301600168042291430160D6
:10555000A06800280FD0FFF7A9F80500A44800684C
:105560003040002820D1FFF7A1F8401BA149884214
:10557000F4D303203AE1FFF799F805009C4800684E
:105580003040002810D0FFF791F8401B994988421D
:10559000F4D303202AE100BF0410024000100240AF
:1055A000FFFFFEFFFFFFFBFF68460078012804D1E4
:1055B0007B480168904A0A4002602078C00650D5B6
:1055C0006069012822D18D48006807438B48076035
:1055D0008A4800680121014388480160FFF766F8A6
:1055E0000500864800683040002806D1FFF75EF8C5
:1055F000401B0328F5D30320F8E080480168F82217
:105600009143A269D2000A4302602AE00421C943FF
:10561000606988420BD179480268114001600168D5
:10562000F8229143A269D2000A43026019E073484C
:10563000006807437148076070480068012188438B
:105640006E490860FFF732F805006C48006830408A
:10565000002806D0FFF72AF8401B0328F5D30320C3
:10566000C4E02078800643D50C20B4490A68024083
:105670000C2A09D00A68104008280ED1C020400228
:1056800009680140814208D15C48006880032FD539
:10569000206A01282CD00120A8E0206A002812D01E
:1056A000564E30688021490201433160FEF7FEFF0B
:1056B0000500306880031BD4FEF7F8FF401B032869
:1056C000F7D3032092E04D4E30689D490140316090
:1056D000FEF7ECFF05003068800309D5FEF7E6FF12
:1056E000401B0328F7D3032080E000BF24100240B2
:1056F000606A002879D0914800680C21014008298F
:1057000052D0606A022838D18E4F38688E490140E5
:105710003960FEF7CBFF00908026B6043868304031
:10572000002807D0FEF7C2FF0099401A0328F3D3E0
:1057300003205BE0A94801680F229143226B0A43D2
:1057400002607E480168814A0A40E16A1143A26A08
:105750000A43026038688021490401433960FEF73A
:10576000A5FF05003868304000283ED1FEF79EFFB7
:10577000401B0328F6D3032038E0724E306872498C
:1057800001403160FEF792FF0500306880012CD5A2
:10579000FEF78CFF401B0328F7D3032026E000BF51
:1057A0001C10024000700040606A012801D10120F5
:1057B0001CE06248006801908848006802900198E7
:1057C000C02149020140A06A81420CD10298000721
:1057D000000F216B884206D10198F0218903014016
:1057E000E06A814201D0012000E0002005B0F0BD58
:1057F0002010024089130000FFFFFFEF3410024029
:10580000F3B581B00400002C01D1012094E0012502
:10581000734E30682840029988420CD230680121CA
:1058200088430299014331603068284002998842D8
:1058300001D0012080E002202168014000290FD022
:105840002178490705D53D490A68E023DB00134369
:105850000B603A490A68F0239A43A36813430B602C
:105860002168294000293BD06168012905D13548CC
:10587000006880031AD401205EE06168022905D126
:1058800030480068800111D4012055E06168032987
:1058900005D154480068800308D401204CE0294910
:1058A00009680840002801D1012045E0234F3868ED
:1058B00003218843616801433960FEF7F7FE0090D9
:1058C00038680C21014060688000814208D0FEF7F2
:1058D000EDFE0099401A44498842F1D303202BE0A1
:1058E00002983168294088420CD2306801218843EF
:1058F000029901433160306805400298854201D029
:10590000012019E02078400706D50C480168374A85
:105910000A40E1681143016000F01AF83449074A6F
:10592000126812091207120F895CC84031490860D9
:10593000032000F027F90020FEBD00000410024003
:10594000FFFFFEFF00100240FFFFFFFEFF7FC2FFD0
:10595000F8B50024200000942500260026490F6891
:105960000C213940042904D0082904D00C2930D056
:1059700031E0224830E00F202149BA0C0240895C16
:105980000E002049154A12681040085C0090C020A3
:1059900040020100394080225202914206D117484C
:1059A0000099FBF766FD7043050010E001003940E7
:1059B000814206D114480099FBF75BFD7043050056
:1059C00005E012480099FBF754FD704305002800DC
:1059D00002E00D4800E00D48F2BD00002C1002402E
:1059E000002002403410024089130000FFF8FFFF3E
:1059F000646E00080800002004100240001BB7007D
:105A0000446E0008546E0008006CDC0200127A003C
:105A1000F8B584B0040000200290019080277F0236
:105A200021683940002964D069460870802040050B
:105A30004A4D29680140002909D12968014329609C
:105A40002968084003900398012069460870444E75
:105A50003068C00512D430688021490001433160AC
:105A6000FEF724FE02903068C00507D4FEF71EFE44
:105A70000299401A6528F6D303206DE0C02080000B
:105A8000384E3168014001910199002923D00199D4
:105A90006268104081421ED0306833490140019154
:105AA0003068074337603068304901403160019801
:105AB00030600198C0070ED5FEF7F8FD02903068FF
:105AC000800708D4FEF7F2FD0299401A284988425F
:105AD000F5D3032040E03068234901406068084363
