:020000040800F2
:1000000088430020797A00084F7000085370000878
:1000100000000000000000000000000000000000E0
:100020000000000000000000000000005770000801
:100030000000000000000000597000085B7000081C
:100040008312000893170008771800087B1800082F
:100050007F1800089F2A0008BF3F0008834E000851
:1000600077540008A7740008CF770008DB770008F2
:10007000257D0008277D0008297D00082B7D0008CC
:100080002D7D00082F7D0008317D0008337D00089C
:10009000357D0008377D0008397D00083B7D00086C
:1000A0003D7D00083F7D0008417D00083D7100084E
:1000B000437D0008457D0008477D000801002020A1
:1000C00008437047FDB5B2B03A98049102A93B22AB
:1000D000885400200D9027A8401C31900DE0049812
:1000E000329A90470490002801D100F0CDFE0D987F
:1000F000401C0D903398401C3390339801780029B0
:1001000010D02529EBD100200790089009900A9083
:100110000B900C90002102250120149008201290D1
:10012000339C05E00D9800F0B1FE080014990143DE
:10013000641C20782028F8D023280BD02B2804D04A
:100140002D2804D0302808D00AE02943F0E7080021
:100150000421ECE708000821E9E708001021E6E7A0
:100160002A280FD1349802681068121D349B1A6037
:100170000F90002804D542420F9208000421014349
:10018000641C12E000200F90644A09E00F9B934228
:1001900005DA9E00F3185B00181830380F90641CC5
:1001A00020780300303B0A2BF0D320782E2803D090
:1001B0000020C0430E9027E0641C20782A2808D134
:1001C000349800680268001D349B18600E92641C0D
:1001D0001AE02D2802D12D22641C00E0002200200C
:1001E0000E900CE0002A09D10E9B4C4EB34205DA6A
:1001F0009E00F3185B00181830380E90641C2078AD
:100200000300303B0A2BEDD302A80187267831008A
:1002100040487844FF30401E00F01EFF002801D007
:10022000641C00E0002602A83A214654405C68287D
:1002300004D1207868280BD1622005E06C2807D112
:1002400020786C2804D1712002A93A228854641CB9
:1002500018A80690207869460870601C339068469C
:1002600004782000253833D01C3800D1CCE1001FA1
:10027000022800D8C8E1133801D100F02FFD093859
:1002800000D1C1E1801E01D100F0C5FD401E01D1A9
:1002900000F072FD401E022800D8B5E1001F01D118
:1002A00000F06AFD401F00D108E1401E01D100F0BE
:1002B00015FD401E00D1F0E0C01E0ED0801E01D101
:1002C00000F00CFDC01E01D100F008FD00F0AEFDF5
:1002D00014980790252018A97CE1349800680468D8
:1002E000001D349908600594002C00D0C1E002A8DC
:1002F0003B21405C002800D1B5E00024E4430648DF
:100300007844143000F0B6FE201A01D000F0BCFD95
:1003100000F099FD287100005C710000CBCCCC0C82
:1003200001236A4602A9280000F06AFE002801D0D5
:1003300000F0AAFD641EF3D13295079D18AC002D84
:100340000FD0329E21780498B0470490002801D144
:1003500000F09AFD0D98401C0D90641C6D1EF1D1AB
:1003600032963020694608700A9C002C0DDD329DC3
:1003700001236A4602A9280000F042FE002801D0AD
:1003800000F082FD641EF3D13295059C089D002D7E
:100390000FD0329E21780498B0470490002801D1F4
:1003A00000F072FD0D98401C0D90641C6D1EF1D183
:1003B0003296302769460F700B9C002C0DDD329D64
:1003C00001236A4602A9280000F01AFE002801D085
:1003D00000F05AFD641EF3D132950598089944182F
:1003E000099D002D0FD0329E21780498B0470490CB
:1003F000002801D100F048FD0D98401C0D90641CB0
:100400006D1EF1D13296684607700C9C002C0DDDF4
:10041000329D01236A4602A9280000F0F1FD002860
:1004200001D000F031FD641EF3D1329502A83821CD
:10043000405C400700D460E62020694608700198BF
:10044000002800DC59E6019C329D01236A4602A97E
:10045000280000F0D5FD002801D000F015FD641E35
:10046000F3D1329549E61B4878446830059000F096
:10047000EAFC0E9D002D03D5200000F01FFE09E0D0
:100480002A000021200000F021FE002801D0001BDE
:1004900000E02800089000F0D6FC3498006802685C
:1004A000001D349908600020C0430021104002AABA
:1004B00003C218A80590782100F0A9FC02A83B21EE
:1004C000415C002908D00024E4434B487844FF30C5
:1004D000293017E7BC6F00003A21405C62286AD0DF
:1004E000682819D06A2845D06C2806D071284FD0CA
:1004F000742831D07A2821D06FE0349800680168E0
:10050000001D349A106000297AD10024E4433B484E
:100510007844FF301738F5E6349800680168001D0C
:10052000349A1060002905D10024E443334878440C
:10053000CA30E7E60D98088000F085FC3498006822
:100540000168001D349A1060002959D10024E44349
:100550002A487844A630D5E6349800680168001D22
:10056000349A106000294BD10024E4432348784496
:100570008A30C7E6349800680268001D3499086024
:10058000002A13D10024E4431C4878446E30B9E6B5
:10059000349800680268001D34990860002A05D16B
:1005A0000024E443154878445230ABE60D98C11757
:1005B00003C200F048FC349800680168001D349ABA
:1005C0001060002905D10024E4430C4878442C3005
:1005D00098E60D98087000F036FC349800680168C1
:1005E000001D349A106000290AD10024E443034816
:1005F0007844083086E600BF4C6E0000606E000054
:100600000D98086000F01FFC34980068C21D072098
:1006100082433498026003CA349B1A6002AA03C260
:100620002022C80F04D007982D2118AA11540DE0DC
:1006300002A8008F284204D007982B2118AA115431
:1006400004E0C00704D5079818A90A54401C079075
:1006500018A8079940181390059027AD02A803C861
:1006600016AA03C2684600782021014368468170BB
:10067000612909D00E98002801D5062003E003D196
:10068000672901D114980E9002A803C80F0006181C
:100690007F417E15FF17BBA20CCA9F4212D1964222
:1006A00010D10903020D11430003002901D10028D4
:1006B00008D003200890613C1A2C19D324497944AE
:1006C0008E3110E002A803C8080041004915994284
:1006D00012D1000310D103200890613C1A2C21D3C1
:1006E0001C4979446E310322139800F015FDAAE3EA
:1006F000194979446231F6E701AA02A803C800F05B
:1007000018FD02AA03C268468078612813D10598B3
:1007100030210170811C059169460978612905D154
:10072000782104E00D4979443231DCE758214170E9
:100730000798801C079002A803C894A20CCA024024
:100740000B400DD1002A0BD10024002663E100BF2D
:10075000486D00004C6D00003C6D0000406D0000D5
:1007600068468078612800D096E00E98002801D570
:10077000212000E0401C1390139F7F1C16A803C883
:100780000022002300F0EAFC02A830C802D2802038
:10079000000645400198001F019027A90A7027A86C
:1007A000461C002F31DD20002900002280235B033E
:1007B00000F0EDFC29D81C2200F002FD04000D0021
:1007C00000F036FD1590FF1F002F09DD00F06AFDD7
:1007D00002000B002000290000F0D1FD04000D00F4
:1007E000F01D0721159A002A0ADD491E08D4401E73
:1007F00013071B0F03701211F5E7401E0022027051
:10080000491EFAD5C61D002FCDDC27A83199711AD3
:1008100027AA551C139A0C00914200DD1400002CED
:1008200033D48C4205DA411C095D082901DB0F2114
:1008300000E00021220027AB9B1801E0641E5B1E34
:10084000521E1E788E42F9D00F2904D1411C895CBA
:10085000491C401C8154002A04D527AD641C019812
:10086000001D0190611E10D46A1868460078137844
:100870003033DEB23A2E01DBC318C6331370491E83
:10088000521E0029F3D5694608700E98002800D43E
:10089000C0E0601E0E90BDE016A830C86D006D0867
:1008A00001986B4948436B4900F0F6FD0190072021
:1008B0000199401A002805DD02002000290000F0FF
:1008C00079FB0AE042420020634900F073FB02001A
:1008D0000B002000290000F039FE6A469278662A53
:1008E00002D1019A0A3200E006220E9B9A18142ABD
:1008F00000DD142227AB30241C705C1C02E016A81B
:1009000003C8139A002A45DD16AB03C3139216A839
:1009100003C800F09FFC15900646083404253000FB
:100920000A2100F0BCFD0F0030000A2100F0B7FDE5
:1009300006003037601E077030000A2100F0AFFD5E
:100940000F0030000A2100F0AAFD0600A41E303777
:1009500027706D1EE3D108341398083813900028CF
:10096000CDDD159800F08EFC02000B0016A803C820
:1009700000F005FD0022394B00F049FE16AA03C223
:10098000C5E700BFFFFFFFFFFFFFFFFFFFFFFFFF08
:10099000FFFFFF7F3198201A27A94D1C04E0401E5D
:1009A0000199491E01916D1C29783029F7D06946BB
:1009B0008978662902D10199491C06E0694689783F
:1009C000652901D1149900E000210E9A5418A04223
:1009D00000DA441E002C1DD4844204DA285D342839
:1009E00001DD392100E030212200681E831801E07A
:1009F000641E5B1E521E1E788E42F9D0392902D128
:100A0000A95C491CA954002A04D50500641C01985E
:100A1000401C0190019E1395684600786946487015
:100A200000F0DEFE406A0078694608700E9D20B234
:100A3000002804DC149C0548784410301390684664
:100A4000807866280CD1761C24E000BF586A00002C
:100A500097750000A08601000000F03F84D7974101
:100A600068468078672846D130B20321C94388425E
:100A700047DBA84245DA761C02A8008F1299C0B263
:100A8000084203D120B2A84200DC050030B22D1A82
:100A900000D5002537B2002F00DDBAE00898411CD0
:100AA00008913021059A1154002D05DC02A8008F11
:100AB0001299C0B2084206D00898411C08916946B4
:100AC0000978059A11547842854200DA6E4236B2AE
:100AD00070420B90AD1920B2854200DA2C0024B28E
:100AE0000994220013990598089BC01800F014FB84
:100AF000281B0C90DAE068464078612818D17020F5
:100B00001BE020B2A84206DA02A9098F129AC9B2E4
:100B1000114200D105006D1E00D5002568464078C1
:100B2000672802D16520694607E04520694604E050
:100B300068464078412801D1502048700898411CEF
:100B4000089113990978059A11541398411C002DA6
:100B500005DC02A8008F129AC0B2104219D0089882
:100B6000421C08926A461278059B1A54002D10DD2B
:100B7000641E20B2854200DA2C0022B20598089B40
:100B8000C01800F0C9FA24B2089800190890281B70
:100B90000B9005980899401869464978017031B260
:100BA000002903D42B214170871C03E02D224270C1
:100BB000871C4E42002412AD300008E00A2100F0EC
:100BC0006BFC15AA03C229701598641C6D1C00B239
:100BD0000028F3DC012C08DC684640782021014322
:100BE000652902D1302038707F1C002C09D13020BB
:100BF00038707F1C07E0641E12A8005D303038702A
:100C00007F1C002CF7DC059808994018381A0990C9
:100C10004CE020B231B288421DDA22B21399059815
:100C2000089BC01800F078FA24B2089800190890C0
:100C3000391B0B91002D05DC02A9098F129AC9B24C
:100C4000114206D069460978059A11540998401C4A
:100C500009900C952AE032B213990598089BC018A8
:100C600000F05AFA0898C0190890A41B002D05DC62
:100C700002A9098F129AC9B2114205D0411C0891EC
:100C800069460978059A115420B2854200DA2C0091
:100C900022B21398C1190598089BC01800F03CFABD
:100CA00024B2089800190890281B0B9002A838213C
:100CB000405C14210140102900D0C4E00798089935
:100CC00040180B994018099940180C9940180F9931
:100CD000884200DBB7E0081A0A90B4E002AA3A2082
:100CE000105C622808D068280ED06A2814D06C28BE
:100CF0001DD0712810D01AE0349801680868091DC9
:100D0000349B1960C0B218E0349801680868091D66
:100D1000349B196080B210E034980068C31D07202E
:100D200083433498036003CB349C236006E03498FB
:100D300001680868091D349B1960002102AB03C3D8
:100D4000108F1299C0B208425BD002A803C80029D4
:100D500001D1002855D06846007820210143782928
:100D60004FD1079818A930220A54401C421C079200
:100D70006A4612780A5444E002AA3A20105C6228BB
:100D800008D068280ED06A2814D06C281DD071288D
:100D900010D01AE0349801680868091D349B196066
:100DA00040B218E0349801680868091D349B196046
:100DB00000B210E034980068C31D072083433498C4
:100DC000036003CB349C236006E034980168086814
:100DD000091D349B1960C11702AB03C3002902DA55
:100DE00007982D2109E0108F284202D007982B2167
:100DF00003E0C00705D50798202118AA1154401C0C
:100E0000079018A80799401805906846017802A82D
:100E100000F03EF817E014980790349800680168D5
:100E2000001D349A106018A801700CE01498079007
:100E3000252018A9087068460078002803D0079577
:100E40006846007848700F980799401A0A99401A26
:100E50000899401A0B99401A0999401A0C99401A9E
:100E6000019002A83821405C400701D5FFF765FAE0
:100E70002020694608700198002801DCFFF75DFA20
:100E8000019C329DFFF74CFA0020C04335B0F0BD05
:100E9000F2B586B0040025696F2901D1082707E063
:100EA0000846FFF70BF9782801D00A2700E0102741
:100EB0003C2603CC083C04AA03C26A46127E642A7C
:100EC00003D06A46127E692A09D1002907DA04A8EC
:100ED00003C800220023121A8B4104A80CC004A8E6
:100EE00003C800290DD100280BD1206B002808D1A0
:100EF000082F3DD13820205C000739D53B26302013
:100F000035E00294009504A830C8761E01962000B2
:100F100029003A00FB1700F06BFC3032D0B23A28BF
:100F20000DDA00988255200029003A00FB1700F0E6
:100F30005FFC04000D0007D1002C05D10AE06846D3
:100F4000007E8218AF32ECE70298C06800998919D8
:100F50008842DAD3029C009D082F09D13820205CFA
:100F6000000705D5A85D302802D0761E3020A85590
:100F70003C20801BA061A919E160216B884206DA40
:100F8000081A2062208F1C490140218710E00029A7
:100F90000ED53821615C14220A40102A08D1616BF9
:100FA0006269891A226A891A081A002800DD2062FB
:100FB00007B0F0BDF8B50026104F04000D000092F8
:100FC00014E0C00707D532003B002000290000F0E4
:100FD0001EFB04000D000098401000903000390006
:100FE00032003B0000F013FB06000F0000980028C1
:100FF000E7D120002900F4BDEFFF000000002440ED
:10100000F8B50024002B11D007000E0014001D00BD
:101010002178B068B847B060002809D0F06A401C59
:10102000F0620020641C6D1EF2D104002000F2BDAD
:101030000020C043F9E70368002A03D15B1E036068
:10104000080070471978002902D10020C04370477A
:10105000591C016018787047C9B202788A4203D0DF
:10106000401C002AF9D1002070470268531C03601D
:101070001170704780B5002801D100BF07A0064954
:101080000B68002B03D022220021984701E000F0DA
:10109000EDFB222002BD0000503F0020636F6E7305
:1010A000747261696E742068616E646C65723A2056
:1010B000626164206D65737361676500431C01782C
:1010C000401C0942FBD1C01A70472E00C9B2521E03
:1010D00005D30378401C8B42F9D1401E7047002095
:1010E0007047430070B4103A03D378C9103A78C0FF
:1010F000FBD2530701D318C918C001D508C908C0CD
:10110000D20704D30B880380891C801C002A01D5D8
:101110000B78037070BC70478B0701D18307E1D057
:10112000124205D00B78491C0370401C521EF9D1A5
:10113000704710B5144600F002F8226010BD4A0056
:1011400053155B1C08D0520D06D003231B02FE3A38
:10115000D21A1305C91A70470022704730B401240F
:1011600064054D00EC420BD85D00EC4208D80C0041
:101170001C4364000443144304D2994200D19042BA
:1011800030BC7047FCD08B42FAD18242F8E730B4D1
:10119000012464054D00EC420BD85D00EC4208D8F8
:1011A0000C001C4364000443144304D28B4200D15E
:1011B000824230BC7047FCD09942FAD19042F8E7A5
:1011C000124217D40023DB435B0D9C464B005B0DA2
:1011D00006D0634504D09B18634502D212058918D6
:1011E00070476246090D11430905002000B500BF94
:1011F00000BF00BD52424B005B0DF1D05B1C5B0594
:10120000EED25B0D934102D91205891A70470BD1BA
:101210000B031B13C90FC907821C00204341134352
:10122000E4D912051143E1E7C90FC9070020DDE742
:10123000F4464A1805D200F00FF801D5801740088F
:10124000604700F009F80121C907884200D9080069
:10125000404260474A1812D2400DC902084301219A
:10126000C9070843520D40210901521A521C06D4E5
:1012700052421F3201D4D0407047C017704700203F
:101280007047FEE7010042221201D21E004207D041
:1012900002D4521E0018FCD5C10A40051205891857
:1012A000704700000100EED54042F446FFF7EBFF27
:1012B0000122D20711436047F0B40125ED070F006A
:1012C0005F404FD48B4200D1824205D98446100042
:1012D00062468C4619006346DF184C18640D7F0D7A
:1012E0003AD0661C760537D0E61B352E34DCDB029F
:1012F0002B43DB0A0C0DC9022943C912202E0DDB3A
:101300001700203E06D01F00F741F3405F40002643
:10131000012A7741C01871410DD217E01700F7413B
:10132000F2405740F3415A40B340F3405A40002640
:10133000801859410AD3A21C52050FD0C207012FB1
:10134000724117004008CB0718434908641C240564
:101350004208AF4170416141F0BC7047641C2105F7
:101360000020F9E76B4010E06B40ABE7F742F3D1A8
:10137000E943F1E72442EFD100200021ECE7F0B48B
:101380000125ED070F005F40EED40C00871A9C4149
:1013900005D2C01BA141D219634169406B40AE0A1E
:1013A000DF184C18F442E1D2640D7F0DE2D0E61B49
:1013B000362ED1DCDB022B43DB0AA4460C0DC9021E
:1013C0002943C90A012E28DC04D1D6075208DF07B9
:1013D0003A435B08EF0A76429041994114D0394272
:1013E0003BD1B61940414941761C394204D1761CA3
:1013F000001849413942FAD0B9436746B74208D983
:10140000A41B24052143A7E70042EAD13642E8D1D4
:10141000A2E7E40AE10700209EE7202E0BDD203E34
:101420001F00F340F7415F40012A002257417E42EE
:10143000984191410BE01700F741F2405740F341CA
:101440005A40B340F3405A407E42904199410A03CA
:1014500003D2641EB619404149410027641E240589
:101460004208AE4178416141F0BC7047F446002823
:1014700004D4494200F013F840426047404200293A
:1014800005D45FD000F00BF8404249426047494222
:1014900000F005F84942604703460B43E6D40022BA
:1014A000030A8B420BD203098B4219D243088B42A9
:1014B0002ED2411A00D20146524110467047FF22F7
:1014C00009023FD012068B4205D3121209028B4249
:1014D00001D31212090203098B4219D300E0090A51
:1014E000C3098B4201D3CB01C01A524183098B42FD
:1014F00001D38B01C01A524143098B4201D34B01E6
:10150000C01A524103098B4201D30B01C01A524148
:10151000C3088B4201D3CB00C01A524183088B42CF
:1015200001D38B00C01A524143088B4201D34B00B8
:10153000C01A5241884200D3401A5241CFD20146CC
:101540001046704708B500F097F908BDF0B40E00DA
:101550005E400125ED072E40B446AE0ADF184C1858
:10156000F4423BD2F74241D2640D43D07F0D38D0D4
:10157000E41BC902DB0229432B43CF0ADB0A060026
:10158000B61A9F4104D2641EB6197F41B6185F4156
:101590006812800D24180018844222DCE80C002117
:1015A000B6197F41B61A9F4102D2B6185F413F1C5F
:1015B00040414941F4D3241C21DD2405B6197F4163
:1015C000B61A9F4105D33743C60737430026012F7C
:1015D0007041614166463143F0BC7047FCD1F7422F
:1015E00005D20020C14349054908F3E704D0002093
:1015F000C143F1E77F0DFAD000206146ECE72442B9
:10160000FAD1401C61410F03F6D30020E2E7F0B5A8
:101610000E005E400125ED072E40B446AE0ADF18ED
:101620004C18F44208D2F7420ED2640D01D07F0D5F
:1016300012D100206146F0BD05D1F74201D87F0DDF
:1016400005D10020C143F0BDFBD1640DF9D00020CD
:10165000C143490549088FE0E419C902DB02294367
:101660002B43DB0A460DC00231438E4630B487B2AD
:1016700095B27D432E0CADB2140C7C43A419260CFC
:10168000240425439CB27C43A419190C7943270CEC
:10169000C919A4B20F043C43090C000C97B247438C
:1016A0002E0CBE193543ADB2170C4743360CBF198B
:1016B000A6B2BF193E043543240C3E0C36199FB226
:1016C0004743BF19BCB23E0C89191F0C47437F1812
:1016D0003E043443390C704680B297B247432E0C17
:1016E000BE193543ADB2170C4743360CBF19A6B22D
:1016F000BF193E043543240C3E0C36199FB24743B4
:10170000BF19BCB23E0C89191F0C47437F183E0419
:101710003443390C77463F0C90B278432E0C801935
:101720000604ADB22E43050CA0B22D18120C7A435C
:101730005019020C80B2240CA4189AB27A431219E0
:1017400014042043120C89181B0C7B43C91830BCAD
:10175000EF0A394203D1B61940414941641E6F1264
:10176000BF0DE41B0BDBFF19BC4211DA2405002777
:101770004208AE417841614166463143F0BD641C88
:1017800005D1401C6141CF0201D34908F4E750E77D
:101790005DE7FEE7613807E005E0010061391A29DD
:1017A00001D20120704741381A288041C00F70478C
:1017B00001000939052901D3202801D101207047F2
:1017C00000207047010041391A2900D220307047AB
:1017D000010061391A2900D2203870470248704749
:1017E0000248704700000000440000200C00002068
:1017F00012422DD0994231D970B500251B4209D033
:101800000C00002112E01100FFF749FE0A00002140
:10181000002370BD0942F6D0002401264918644116
:10182000944200D3A41A7641F8D33100012601E096
:10183000764109D2001864416D41A41A9D41F7D246
:10184000A4185D41B619F5D3300022002B0070BDFD
:101850001B42CFD108B500F011F808BD01D190426C
:10186000CAD202000B0000210020704780B5012081
:1018700000F006F801BDFEE77047FEE77047FEE79F
:1018800080B500BF00BF024A11001820ABBEFBE7C5
:101890002600020080B503000800C168491CC16031
:1018A000012200210068984702BD80B503000800AE
:1018B0000269521E0261C168491C002AC16000D43D
:1018C000EEE70020C04302BD10B503000800110080
:1018D000C268521E0024E443A142C26002D000222A
:1018E0000068984710BD0000F8B59EB00024E4439E
:1018F000019119680291249901ABD97700210491D3
:1019000003920AA91F311D910700099413E004985E
:10191000401C0490012200210198B847040000F007
:10192000E1FE0028F3D1220001A93800FFF7CCFF27
:101930000398401C03900398007800F0D3FE002821
:10194000E5D1039C2078002805D10999884200DA66
:1019500008001FB0F0BD252808D1601C0390017855
:101960002A2914D1411C0391007811E00498401CED
:101970000490012200210198B84721788842D7D0ED
:10198000020001A93800FFF79FFF0020DDE70020DB
:1019900001A90877002006900BE00698A14A904222
:1019A00005DA820010184000401830380690601C9C
:1019B0000390039C2178080030380A28EDD30020DA
:1019C000C0430790217838487844FF302338FFF728
:1019D00043FB002802D0601C0390207801A94877BF
:1019E00001A8407F682807D10398017868290DD1A4
:1019F000622101AA517707E06C2807D10398027889
:101A00006C2A03D171224A77401C03900398017815
:101A1000264878449630FFF71FFB002810D1049821
:101A2000401C0490012200210198B847040000F0F6
:101A300059FE0028F3D1220001A93800FFF744FF26
:101A4000002001A9887703980078253843D01C38F6
:101A500000D1BAE0001F022800D8B6E0133800D148
:101A600072E3C01E24D0801F00D1AEE0801E01D1E1
:101A700000F001FD401E00D166E3401E022800D8A0
:101A8000A3E0001F00D15FE3401F4DD0401E01289E
:101A900000D859E3001F44D0801E00D154E3C01E7B
:101AA00000D151E300F0F1FCF45B0000F85B0000B2
:101AB0000022D24300F0E0FC099E2499002901D1C4
:101AC00000F0E5FC2221C943884201D000F0DFFC90
:101AD0000020C0433DE70498401C049001220021EF
:101AE0000198B84725280DD10998002801D5002074
:101AF000099001A8807F002800D119E70998401CAF
:101B0000099015E7099E0400220001A93800FFF79B
:101B1000DBFE0020C043844201D100F0B8FC00F09D
:101B20000BFC012200F0A8FC01A8007F0028DBD1FB
:101B300001A8407F622838D0682815D06A2823D0B1
:101B40006C2801D071281FD002980168001D0290F6
:101B5000002906D10024E44333487844CA3000F019
:101B600086FC04980860BFE702980168001D029097
:101B7000002906D10024E4432B487844AA3000F021
:101B800076FC04980880AFE702980268001D029076
:101B9000002A06D10024E443234878448A3000F028
:101BA00066FC0498C11703C29EE702980168001DF5
:101BB0000290002906D10024E4431B487844683091
:101BC00000F055FC049808708EE70698002800DCA9
:101BD000164805900EAC3800FFF767FE00210A9109
:101BE0002B2801D02D2807D10EA908700EA8441C5F
:101BF00001A93800FFF759FE0A2500216A46117035
:101C0000302820D101A93800FFF74FFE20220243DF
:101C1000D2B2782A0CD001216A461170694609783F
:101C2000EFE000BFCBCCCC0C845A0000FFFFFF7F5D
:101C30003020207078206070A41C01A93800FFF7C4
:101C400034FE1025EAE7202601003143CAB26E2A8D
:101C500048D10020694648706E202070651C01A99B
:101C60003800FFF722FE04003043C0B2612800D0E4
:101C7000AAE128706D1C01A93800FFF716FE0400C8
:101C80000643F6B26E2E00D09EE101A93800FFF7A0
:101C90000CFE282806D0020001A93800FFF714FE28
:101CA0006E20A6E00598401E059005D50498401CBE
:101CB00004900024E44304E001A93800FFF7EAFDA2
:101CC00004002600200000F016FD0028EAD1303C78
:101CD0000A2CE7D35F2EE5D03400292C00D073E125
:101CE0006E2086E0C9B2692900D09FE000206946D5
:101CF000487069202070651C01A93800FFF7D5FDE8
:101D000004003043C0B26E2800D05DE128706D1C25
:101D100001A93800FFF7C9FD04003043C0B26628AE
:101D200000D051E101A93800FFF7BFFD01003143A8
:101D3000C9B2692905D0020001A93800FFF7C4FD26
:101D400056E00599491E05910498401C002904900D
:101D500005D4012200210198B847040001E00024C5
:101D6000E44320003043C0B26E2800D02CE1059936
:101D7000491E05910498401C0029049005D40122B5
:101D800000210198B847040001E00024E44320004A
:101D90003043C0B2692800D016E10599491E05916B
:101DA0000498401C0029049005D4012200210198C8
:101DB000B847040001E00024E44320003043C0B2EF
:101DC000742800D000E10599491E05910498401C33
:101DD0000029049005D4012200210198B84704008D
:101DE00001E00024E4432643F6B2792E00D0EBE074
:101DF000662028706D1CF0E001A93800FFF74AFD4D
:101E00000121302809D10598401E0590F4D5049889
:101E1000401C04900020C043F2E76A4611706946F6
:101E20000978002902D030212170641C0A9E6A467C
:101E300055701278002504E001A93800FFF72AFD4B
:101E400001220021C943884225D00100CBB2612B79
:101E500001DBA93109E0412B01DBC93105E0303B51
:101E60000A2B01D2D03100E0FF216B465B78C9B26A
:101E7000994210D2242D03DA2070641C6D1C00E0FE
:101E8000761C0598401E0590D6D50498401C0490F9
:101E90000020C043D4E70C970B9404000A966846D0
:101EA00002700D95FFF79CFC406A0078844215D1C2
:101EB0000B9804700B98401C0B900599491E0591D6
:101EC0000498401C0029049006D4012200210198A6
:101ED0000C9B9847040001E00024E4430D9800287F
:101EE00028D10C9E20000A9D6946097804E001A9CA
:101EF0003000FFF7CFFC012130280AD16D1E059874
:101F0000401E0590F3D50498401C04900020C04367
:101F1000F1E70C9604000A95684601700A980028BB
:101F200008D530200B9908700B98401C0B900A982C
:101F3000401C0A900C9F0B9D210068464678007853
:101F40000D9C05E001A93800FFF7A4FC0100012069
:101F50000022D243914222D00A00D3B2612B01DB8E
:101F6000A93209E0412B01DBC93205E0303B0A2BE5
:101F700001D2D03200E0FF22D2B2B2420FD2242CE2
:101F800009DB0598401E0590DCD50498401C0490A0
:101F90000020C043DAE729706D1C641CF1E70C00D7
:101FA00069464E7008706846007800280CD02020E2
:101FB000204349780A2941D1C0B2652841D003E0C5
:101FC0002500040068460170220001A93800FFF7CF
:101FD0007BFC68460078002825D00020287001A8E6
:101FE000007F002800D07FE5684640780A2800DDA1
:101FF0007FE000230A9A00210EA800F085FC01ABC7
:1020000001229A77029A5B7F6C2B00D07EE01368E6
:10201000121D0292002B77D10024E44347487844F4
:10202000FF301B3023E2099E0EA8854200D083E1D9
:102030000020C043844200D07EE128E2C0B2702874
:10204000C2D12C706C1C0598401E059010D40498C9
:10205000401C0490012200210198B8472B2801D090
:102060002D2812D12070641C0598401E059005D5BE
:102070000498401C04900020C04306E00498401CD3
:102080000490012200210198B8470025002104E0B6
:1020900001A93800FFF7FEFB0121302809D105987E
:1020A000401E0590F4D50498401C04900020C043C5
:1020B000F2E70A0008D030222270641C04E001A973
:1020C0003800FFF7E7FB01210200303A0A2A00D36B
:1020D00076E7082D09DB0598401E0590EFD504989A
:1020E000401C04900020C043EDE72070641C6D1C70
:1020F000F1E70023002200210EA800F005FC0A9A57
:102100009200FFF75DF87AE703C3EDE44C2B0AD1A8
:102110001368121D0292002BF6D10024E4430748F5
:1021200078441830A3E11468121D0292002C07D1E4
:102130000024E44301487844801C98E1B455000031
:1021400000F07CFC2060CFE40698002801DD401EF2
:1021500000E010480AAC0590002804981CD4401CEC
:102160000490012200210198B8472B2801D02D2886
:1021700016D10AA908700AA8441C0599491E0591A0
:102180000498401C0029049008D4012200210198E1
:10219000B84705E0FEFFFF7F401C04900020C043CD
:1021A000002503990978642911D075290FD0692970
:1021B00001D100260CE06F2901D1082608E0702922
:1021C00003D020220A43782A02D1102600E00A26F2
:1021D000302834D10120009001250598401E05903B
:1021E000049806D4401C0490012200210198B847AD
:1021F00003E0401C04900020C04320220243D2B2DE
:10220000782A18D1002E01D0102E21D11026059841
:10221000401E0590049807D4401C04900122002120
:102220000198B847002513E0401C04900020C043EB
:10223000009000254EE0002E0AD1082608E0002E6E
:1022400036D10A2634E001A93800FFF723FB009DB0
:10225000302809D10598401E0590F4D50498401CFB
:1022600004900020C043F2E7290621D030212170DC
:10227000641C1DE0412B01DBC93205E0303B0A2B19
:1022800001D2D03200E0FF22D2B2F1B28A4220D293
:102290001D998C4216D30598401E059001250028F3
:1022A000049812D4401C0490012200210198B847E0
:1022B0000021C94388420CD00200D3B2612BD9DB84
:1022C000A932E1E72070641CE5E7401C049000207F
:1022D000C0430090009A01A93800FFF7F5FA2D06D7
:1022E00020D00020207001A8007F002801D0FFF737
:1022F000FBFB03980078642871D069286FD0320006
:1023000000210AA800F09AFC01AA01239377039BFD
:102310001B78702B15D1029A1368121D0292002BA4
:102320000CD1A0E0099E00990AA8844204D10020A3
:10233000C043814200D1AAE00020A8E01860FFF766
:10234000D3FB527F622A3AD0682A11D06A2A26D05B
:102350006C2A06D0712A2AD0742A19D07A2A10D071
:1023600036E0029A1368121D0292002BE6D17AE041
:10237000029A1368121D0292002B74D01880FFF786
:10238000B3FB029A1368121D0292002BD6D16AE0A9
:10239000029A1368121D0292002BCFD163E0029AB9
:1023A0001368121D0292002B00D0ADE65BE0029A8A
:1023B0001368121D0292002B00D0A5E653E0029A8A
:1023C0001368121D0292002B4DD01870FFF78CFB82
:1023D000029A1368121D0292002BAFD143E0320023
:1023E00000210AA800F083FC01AA01239377527F01
:1023F000622AE4D0682ABBD06A2A1DD06C2A06D093
:10240000712A21D0742A10D07A2A07D024E0029AA7
:102410001368121D0292002B90D124E0029A1368D7
:10242000121D0292002B89D11DE0029A1368121D21
:102430000292002B82D116E0029A1368121D0292BA
:10244000002B00D060E60EE0029A1368121D029283
:10245000002B00D058E606E0029A1368121D029283
:10246000002B00D06AE70024E44300BF95A0FEF7EC
:1024700001FE201A03E00022380000F031F80028A5
:1024800001DDFFF731FBFFF717FB0020099E002E4F
:1024900001D5FFF75EFA3000FFF75BFAC9B206E03C
:1024A000994202DB83788B4215DAC01CD21E032AC4
:1024B00008D343782D2B0378F2D08B420BD0401CED
:1024C000521EF4E7002A08D003788B4203D0401C48
:1024D000521EF9D101E00120704700207047000032
:1024E000F8B588B007000E0015000020049069467A
:1024F0000871002D27D5B068401CB06001785E29B6
:1025000003D1411CB160007800E000200290B46863
:1025100020785D2801D1601C00E020005D21FEF7DD
:102520009BFD002800D1B2E0011B0091B060009833
:10253000032808DB821E2D21601CFEF7C7FD002842
:1025400001D0012004907069002804DC002D01D026
:10255000534800E001203061307F00280DD17068C1
:102560000168001D70600691002906D10024E44333
:102570004A487844FF30273011E0307F002817D1D7
:10258000F07F002814D071680868091D71608021EF
:102590000906884207D30024E44300BF41A0FEF7A8
:1025A00069FD201A78E0B169884200D90800B0615D
:1025B000079703950594069F6846057900E0022574
:1025C0003169491E3161F068401C0029F06002D574
:1025D0000024E44342E0012200213068079B984731
:1025E00004000020C043844238D0039800280CDC4B
:1025F00026D50498002802980BD00028009A19D0FC
:1026000021000598FFF74AFF0AE0200000F06AF871
:1026100006E00028009A06D021000598FEF756FD36
:1026200000281BD10CE021000598FEF74FFD002883
:1026300014D005E021000598FFF730FF00280DD0E9
:10264000307F0028BBD10125B069002806D03C703E
:102650007F1CB577B069401EB061B0E707982200D3
:102660003100FFF731F90398002801D0022D08D07E
:10267000022D10D00020C043E9070DD4844206D1BA
:102680000AE0307F002806D1B069002801D100207F
:1026900002E000203870012009B0F0BDA450000015
:1026A000FFFFFF7F7363616E665F733A2062616450
:1026B0002025632C2025732C206F7220255B20732E
:1026C000697A65007363616E665F733A2062616464
:1026D00020696E746567657220617267756D656EDD
:1026E0007400000010B50400FFF778F80100200026
:1026F000096A884710BD10B50400FFF76FF80100A4
:1027000020000969884710BDFBB584B0002A00D1BC
:10271000F0E004A803C87AA430CC04400D4002D1F4
:10272000002C00D1E6E00800410049150023DB43FE
:10273000994202D1000300D1DCE00020B749002A11
:102740005AD554422B4D7D44AA3508260AE0E207AB
:1027500005D502000B0003CD083DFEF758FF6408C5
:102760000835761E002C01D0002EF0D106000F0097
:102770006A4604A803C8FEF7DCFC009D32003B005B
:10278000FEF7E4FE2A00FEF71BFD04AA03C25CA6C6
:10279000C0CE04A803C8394002D1002800D18EE081
:1027A00004A803C8080041004915B14202D1000342
:1027B00000D184E0002C00D181E004A803C86A465F
:1027C000FEF7B7FC009D96A20CCAFEF720FF2A0078
:1027D000FEF7F6FC32003B0002400B4001D1002A1C
:1027E0006BD04B005B15B34201D10A0365D0641E68
:1027F00063D0E4E7944D000061DD404D7D44FF353A
:10280000ED1E0826012714003C4205D002000B00F3
:1028100003CD083DFEF7FBFE64100835761E002C44
:1028200001DD002EF0D1260004000D006A4604A848
:1028300003C8FEF77EFC009F22002B00FEF7E7FE98
:102840003A00FEF7BDFC04AA03C22DA003C802AAE9
:1028500003C204A80CC802A803C81040194001D143
:1028600000282CD004A803C808000027FF4341001B
:102870004915B94201D1000321D0002E1FDD04A863
:1028800003C834006A46FEF754FC009D66A20CCAD9
:10289000FEF7BDFE2A00FEF793FC02AA0CCA024016
:1028A0000B4001D1002A08D04B005B15BB4201D17F
:1028B0000A0302D0641E002CE4DC04AA03C204A8AC
:1028C00003C80FA20CCA02400B4001D1002A08D055
:1028D0000800410049150022D24391420AD1000369
:1028E00008D1069C00BF00BF002C03D02068012146
:1028F0000143216004A803C807B0F0BD8C4C000060
:10290000FFFFFFFFFFFFFF7FF9B587B01500002B2A
:1029100001D0002018600E00079C07A800F0ECF919
:102920000107CA0F059208218843049501282DD17B
:102930000220009001AB32000799200000F068FAF5
:10294000050002D1002000211BE00298FEF7AAFC3E
:10295000022D16DB01AC08346D1E02000B000020B6
:102960003349FEF754FE06000F002068FEF79AFC7C
:1029700032003B00FEF7A0FC02000B00241D6D1E80
:10298000EDD1089B049A019C12192EE002282FD148
:10299000009001AB32000799200000F023FB0500F6
:1029A00002D1002000211BE00298FEF77BFC022DE3
:1029B00016DB01AC08346D1E02000B0000201D491F
:1029C000FEF725FE06000F002068FEF76BFC3200C4
:1029D0003B00FEF771FC02000B00241D6D1EEDD1C3
:1029E000019AFEF7EDFB089B049AFFF78DFE0CE0C1
:1029F000032802D10020104907E0042803D1002059
:102A0000C043410801E000200021059A002A02D0BD
:102A100080221206514009B0F0BD00000000F03FD6
:102A2000436FAC642806C80A3CBF737FDD4F157541
:102A300065CDCD410000B0410000F07F012252057C
:102A40004B18DA4201D9581570475B0D0722D201A5
:102A50009B1A10D9FF2B1DD2DB050122D2070A4099
:102A600013430903020D1143490AC200524100D920
:102A7000491CC81870470AD1800A0A03024352123F
:102A8000921C04D9D3070B40D00518437047C80FD8
:102A9000C0077047C80F0002FF30C0057047FEE74F
:102AA000FCB589B00C001500002B01D00021196085
:102AB0000490064600E0761C3078FFF713FE0028ED
:102AC000F9D130782D2801D02B2803D16946087020
:102AD000761C02E02B20694608700194002D03D477
:102AE000012D01D0252D04DB002C64D0049820603A
:102AF00061E0002D0ADD102D16D13078302813D179
:102B000070782021014378290ED10AE030783028EE
:102B100001D00A2508E0707820210143782902D1EC
:102B20001025B61C00E00825089600E0761C3078D9
:102B30003028FBD00020002106AA03C205963C4B9A
:102B40007B44FF33133B28336C466370039506AB1D
:102B500030CB06AB03C30290354F7F44FF372D3F88
:102B600011E006A930C169464978401AC0B2029006
:102B700020002900039AD31700F050FB029C002587
:102B800024184D41761C307800F061FB039A010057
:102B900038002830FEF79AFA0028E2D1039A03960B
:102BA000029E08980399884208D10198002802D013
:102BB0000498019908600020002137E00846059933
:102BC000401AB95C401A00281ED412DCF6B2002765
:102BD0002900A01BB9418D420BD301D8844208D3F0
:102BE000D317FEF705FE06AA0CCA994201D19042FE
:102BF0000AD000BF00BF0A98002802D001200A991D
:102C000008600CA430CC09E0684600782D2805D176
:102C100000200021001BA94104000D00019800289C
:102C200002D0039801990860200029000BB0F0BD84
:102C3000C8480000FFFFFFFFFFFFFFFF80B5002334
:102C4000FFF72EFF04BDF7B50D001E00002D00D1CB
:102C50006D460190044600E0641C2078FFF742FDB9
:102C60000028F9D127782D2F01D02B2F06D1641CF5
:102C70002078FFF737FD002801D009E02B27029AC2
:102C8000330029002000FFF70BFF2A68944204D18B
:102C9000019828600020002109E02B2F09D1802312
:102CA0001B0699420FD202000B001000190003B05E
:102CB000F0BD2D2FF7D1012280231B06994211D39D
:102CC00001D890420ED300BF00BF002E01D00120DA
:102CD00030602D2F02D100201946E8E70020C043C4
:102CE0004108E4E700220023121A8B41DDE780B59A
:102CF0000023FFF7A8FF04BDF1B582B00E00046801
:102D00000027002500E0641C2078FFF7EBFC00287A
:102D1000F9D120782D2801D1082501E02B2800D1F8
:102D2000641C2178202020220A4300966E2A25D197
:102D300061780143612903D1A17808436E2802D04C
:102D40000298046815E0E41C250004272878282848
:102D50000FD16D1C2E783000FFF7CDFC0028F8D184
:102D6000303E0A2EF5D328785F28F2D0292800D1EA
:102D70006C1C0098002846D0046044E0692A26D1E3
:102D8000617801436E2903D1A1780143662902D0FD
:102D90000298046817E0E41C03272F4321780143BD
:102DA000692910D1617801436E290CD1A1780143C2
:102DB000692908D1E1780143742904D121790843B4
:102DC000792800D1641D002E1DD034601BE030290D
:102DD00017D161780843782813D1A01C01782E29D7
:102DE00000D1401C007801006139062906D301009A
:102DF0004139062902D330380A2802D2A41C0227FE
:102E000000E001272F4302980460380003B0F0BDB2
:102E1000F5B591B00D001900189A00200290D3006A
:102E20009A182D2A00DD2D22086048600027012312
:102E300001E06D1C01272C78302CFAD0002600937D
:102E400005AC18920FE00A68521C0A602A78302AF2
:102E500007D0009805E0189B9E42F4DAD032A255C4
:102E6000761C6D1C009F2A781300303B0A2BF2D38E
:102E700001910390FEF7B4FC2978406A0078814202
:102E800000D16D1C002E01980ED1297830290BD16C
:102E90000168491E01606D1C009FF6E7302901D0D2
:102EA000009903916D1C009F29780A00303A0A2A84
:102EB00009D2189A9642F1DAD031A155761C0168F0
:102EC000491E0160EEE701951899039A0397002ABD
:102ED00004D0621E525C521C631E5A54050007E067
:102EE000601E805D002809D12868401C2860761E7D
:102EF000002EF5DC02D100202070009E03980028EF
:102F000060D000200490092430000921FEF7C4FAA3
:102F1000641A20000921FEF7BFFA002901D00098A9
:102F20000290029F0296049E18E0B80028180168DB
:102F30008A0051184900009A891801600CE005A820
:102F4000805D009020000921FEF7A6FA0029ECD14F
:102F50007F1C0098B9006850641C761C0298864259
:102F6000EDDB02970198007820210143652929D1E2
:102F7000019800900198431C1C782B2C01D02D2C1B
:102F800001D15B1C00E02B240026002109E0144E37
:102F9000B14204DA8E0071184900091830395B1CFF
:102FA000012618780700303F0A2FF0D301932D2C0B
:102FB00001D148420100286840182860002E01D144
:102FC000009801901299002906D00398002801D09A
:102FD000019800E011980860029813B0F0BD00BF9E
:102FE00000E1F505F5B58FB0169800220392C200F6
:102FF000101A232800DD232000221A605A600026C0
:1030000001E0491C01260C78302CFAD0002400BFC6
:1030100076A20092012202920D001F00169010E08D
:103020003868401C38600AE01699A142F8DB00BFFE
:1030300074A1009A801A085C05A90855641C6D1CCF
:10304000029E00BF69A016222978FEF73FF80028EB
:10305000EAD1049701962700FEF7C2FB2978406A5F
:103060000078814200D16D1C002F0BD12C00049EF2
:10307000019D2078302819D13068401E3060641CD2
:10308000029DF6E72C00049E019D0FE01699B942BF
:103090000ADB00BF5BA1009A801A085C05A9C8552D
:1030A0007F1C3068401E3060641C029D162221780F
:1030B0004EA0FEF70BF80028E8D100941698019571
:1030C000B84218DA05A9095C072906DD05A9491ED9
:1030D000095C491C05AA521E115407003068401CA7
:1030E000306008E005A8401EC05D00280AD13068A5
:1030F000401C30607F1E002FF4DC03D100206946A5
:103100000875029F306880003060019800285ED00A
:1031100000200490072438000721FEF7BDF9641A47
:1031200020000721FEF7B8F9002901D0029803908A
:10313000039D0397049F16E0A80030180168090159
:10314000029A891801600CE005A8C05D0290200079
:103150000721FEF7A1F90029EED16D1C0298A90004
:103160007050641C7F1C03988742EDDB0395009828
:10317000007820210143702929D1009802900098FD
:10318000431C1C782B2C01D02D2C01D15B1C00E0A2
:103190002B240025002109E0134DA94204DA8D00FB
:1031A00069184900091830395B1C01251878070097
:1031B000303F0A2FF0D300932D2C01D1484201005B
:1031C000306840183060002D01D1029800901099AD
:1031D000002906D00198002801D0009800E00F983F
:1031E0000860039811B0F0BD00E1F50530313233CD
:1031F0003435363738396162636465664142434429
:1032000045460000000102030405060708090A0BF1
:103210000C0D0E0F0A0B0C0D0E0F000030B44343C3
:1032200051435D18010C0C00130C5C432D1980B246
:10323000434392B251430024C918644124040B044F
:10324000090C09195043C018694130BC704710B5CA
:103250000400FEF7C3FA01002000896A884710BD08
:10326000C16908000006C00F7047000070B59C4C93
:103270002078002827D002284DD038D3042872D0D7
:103280005DD3062800D1A7E000D291E0082800D144
:10329000CAE000D2B4E00A2800D1EDE000D2D7E0C5
:1032A0000C2800D110E100D2FAE00E2800D188E10C
:1032B00000D250E1102800D1B8E100D299E11128E4
:1032C00000D1B8E1DBE1A94D2888002806D1A84843
:1032D00000F08EFAFA20C000288007E000F0E2F942
:1032E000A4480078002801D001202070C7E19F4D3C
:1032F0002888002806D1B84800F07AFAFA20C000E1
:10330000288007E000F0CEF99A480078002801D024
:1033100002202070B3E1954D2888002806D1AF48DF
:1033200000F066FAFA20C000288007E000F0BAF941
:1033300090480078002801D0032020709FE18B4D39
:103340002888002806D1B54800F052FAFA20C000BB
:10335000288007E000F0A6F986480078002801D010
:10336000042020708BE1814D2888002806D1AC48CC
:1033700000F03EFAFA20C000288018E000F092F930
:103380007C480078002812D0A649A74800F000FE2B
:10339000002806D0764800F02BFA0120B8490870C2
:1033A00005E00020B749086028800520207066E10C
:1033B0006E4D2888002806D1B34800F019FAFA208B
:1033C000C000288007E000F06DF96A480078002806
:1033D00001D00620207052E1644D2888002806D1D3
:1033E000AA4800F005FAFA20C000288007E000F0A3
:1033F00059F960480078002801D0072020703EE18C
:103400005A4D2888002806D1A14800F0F1F9FA2089
:10341000C000288007E000F045F9564800780028F1
:1034200001D0082020702AE1504D2888002806D1BC
:10343000984800F0DDF9FA20C000288007E000F08D
:1034400031F94C480078002801D00920207016E19D
:10345000464D2888002806D18F4800F0C9F9FA2087
:10346000C000288007E000F01DF9424800780028DD
:1034700001D00A20207002E13C4D2888002806D1A6
:10348000864800F0B5F9FA20C000288007E000F077
:1034900009F938480078002801D00B202070EEE0B0
:1034A000324D2888002806D17D4800F0A1F9FA2085
:1034B000C000288007E000F0F5F82E4800780028CA
:1034C00001D00C202070DAE0284D2888002809D18E
:1034D0009C4800F08DF9FA20C00028803AE000BF37
:1034E0006B3F002000F0DEF822480078002801D071
:1034F0000D20207000242600250093A14A4800F0EA
:1035000047FD0100002825D0904822000270C91C08
:103510000A78302A02DB0A783A2A00DB491C2200AA
:1035200013009BB20F2B11DA0B78302B02DB0B78D8
:103530003A2B02DB0123037008E00B78844D160060
:10354000B6B2AD19AB77521C491CE9E7804892B27C
:103550008018847793E0054D288800280CD17D4899
:1035600000F046F9FA20C000288029E0583F0020EA
:10357000947A00087C3F002000F094F876480078A8
:10358000002801D00E202070002426002500734959
:10359000254800F0FDFC0100002811D0081D6C49F1
:1035A00031222E23CA54220092B2152A08DA027858
:1035B00023009BB2CB1830255A55641C401CF2E7FF
:1035C0005DE0874D288800280AD1654800F010F991
:1035D000FA20000128800BE0A07A0008B8790008E2
:1035E00000F060F85C480078002801D00F202070BF
:1035F00045E07B4D2888002806D1274800F0F8F8E0
:10360000FA20C000288007E000F04CF8524800780B
:10361000002801D01020207031E000BFAC7A0008F3
:10362000B87A0008247C00083839002000F0E1FC5A
:103630001120207023E06A4D2888002806D16948AF
:1036400000F0D6F8FA20C000288018E000F02AF830
:1036500041480078002801D01220207000F05AFB69
:1036600001200100604A117060490978312901D1B7
:103670007B49087000200100AC4A1170207070BDB9
:103680005F3F0020403F0020C8790008FC78000818
:1036900010790008247900082C780008387900088F
:1036A0002C7C000810B5322000F0ACFD784C79A1DC
:1036B000200000F06DFC002817D00120264908707A
:1036C00000200100744A11700100994A1170010034
:1036D0007C4A11707C4908600100414A1180010058
:1036E0007A4A11707A4908702AE07A49200000F07D
:1036F0004FFC002805D17849200000F049FC002843
:103700001BD001206449087000200100124A11708A
:103710000100874A11700100314A11806A4908602E
:103720000100844A11700100684A117068490A78E2
:10373000521C0A706349087002E001207C4908703D
:1037400010BD0000347C000847534E007F3F00202E
:10375000103E00203C7C00087C3F0020447C000898
:10376000C47A0008F8B5040000263500300073491B
:103770000870734F300038703878002824D120004A
:10378000C0B2002820D06D48007800281CD16A48BB
:103790000178012902D131000170641E3DA13C482D
:1037A00000F0F6FB0500002806D0012038704648DE
:1037B0000660300045490870002DDDD020212970B9
:1037C000681C01703500D7E72000C0B2002803D183
:1037D0003E480178491C0170322000F013FDF1BD14
:1037E000583F0020D07A0008693F00203E3E00206C
:1037F000F8B5040000263000514908708025ED001E
:103800000096234F009A2900380001F013FB2E4840
:103810000660022001F036FB207800280CD09C487E
:10382000FFF71EFD0028FAD020789A490880641C12
:10383000012001F027FBEFE7022001F023FB944D6C
:103840002800FFF70DFD0028F9D0924E0D203080A2
:103850002800FFF705FD0028FAD00A203080F1BDCE
:10386000633F002010B50400022001F00BFB20781C
:10387000002809D08648FFF7F3FC0028FAD020780A
:1038800084490880641CF2E7022001F0FBFA10BDB5
:10389000383900204F4B0000663F002010B504006F
:1038A00000200100C9B21E2902DA00BF401CF8E75F
:1038B0007748FFF7D5FC0028FAD02000C0B2754940
:1038C000088010BD673F0020403F0020843F00205B
:1038D0006C3F00204C7C0008547C000838B5050083
:1038E0000C002878002816D02000C0B2002812D082
:1038F00000200100C9B2322902DA00BF401CF8E7FB
:10390000641E6348FFF7ACFC0028FAD028786149B0
:1039100008806D1CE5E7022001F0B4FA0D20FFF7E6
:10392000BDFF0A20FFF7BAFF31BD0000603F002055
:10393000623F00206A3F0020653F00207D3F00205D
:103940007C3F0020FEB500252C002800524908705D
:10395000322702970195514E0096019A02990098DC
:1039600001F068FA00984E4805604E48FFF740FFA6
:103970000520FFF7F7FE4C480078012834D12800D5
:103980004949087049A1300000F002FB009000286E
:103990001FD00098C01C0090454C009801F031FBEE
:1039A00020702078232801DB280020702078082848
:1039B0000FDB029701953400019A0299200001F073
:1039C00039FA374805603B48FFF712FF0520FFF73B
:1039D000C9FE36A1300000F0DBFA0400002803D055
:1039E00020202070641C20702F48007801282DD1E1
:1039F00031A1300000F0CCFA040000281FD0A41D33
:103A00002078312802D02078352810D101970095F0
:103A10003700009A0199380001F00CFA204805603F
:103A2000A548FFF7E5FE0520FFF79CFE0EE0280005
:103A30001D490870A1480178491C017006E0280062
:103A4000194908709D480178491C01701648007892
:103A5000012815D19AA1300000F09AFA040000283C
:103A60000ED0241D2078312806D101200A49087083
:103A700028009249087003E090480178491C0170C1
:103A800005480078002801D18E480570F7BD000078
:103A900000380140283801407E3F0020383900209E
:103AA000403F00205C7C00087C3F0020513A000031
:103AB000AB3E0020DC7A000845473A00F0B5B3B0D1
:103AC000002401943220009025007F4E2A000099A6
:103AD000300001F0AFF97D4804607D48007801288E
:103AE00010D1322000902500774E2A000099300036
:103AF00001F0A0F9754804607648FFF779FE0220CE
:103B0000FFF730FE74A1704800F042FA050000286B
:103B100000D1CDE02F1D387822282DD17F1C6F4D8C
:103B20002000288028880A2826DA3878222806D11A
:103B300020006B492A8889184E2288541CE0684E60
:103B40003878298871184E228854288830184E21D8
:103B5000405C01F05DFA002809D0288830184E2119
:103B6000405C01F05EFA298871184E22885428883A
:103B7000401C28807F1CD5E7322002900194524DD2
:103B8000019A0299280001F055F950480460642018
:103B9000009022001AAD0099280001F04BF9504E18
:103BA00035007A354F49280000F0F2F9002805D198
:103BB0004D49280000F0ECF9002822D035004E35A0
:103BC0004A49280000F0E4F9002804D048491AA81E
:103BD00001F030FA1AE04749280000F0D9F900282E
:103BE00004D045491AA801F025FA0FE043492800FE
:103BF00000F0CEF9002809D041491AA801F01AFABC
:103C000004E02A003FA11AA801F014FA3E48FFF789
:103C1000EFFD0220FFF7A6FD3C492B4800F0B8F964
:103C2000050000282CD01AA9274800F0B1F905009A
:103C3000002825D00120234908701320019000940A
:103C400037005937009A0199380001F0F3F82348FA
:103C5000210001800188132912DA2978222905D14F
:103C60002100008830185922815409E029780288FF
:103C7000B2185923D1540188491C01806D1CE9E711
:103C800010480078002813D164200090260001AF6E
:103C900032000099380001F0CDF81AAA1C4901A899
:103CA00001F0C8F901A8FFF7A3FD0220FFF75AFDB4
:103CB0000748047033B0F0BDE87A0008833F002065
:103CC00054543A00803F002038390020403F002003
:103CD0007C3F0020647C0008504E3A00563F002094
:103CE000103E00206C7C0008747C00087C7C00087E
:103CF000F47A0008847C00088C7C0008007B0008B3
:103D00000C7B000825730000187B0008947C0008D9
:103D100044780008F0B59BB000273C007AA17B48AE
:103D200000F036F90600002834D0361D30782228FD
:103D300030D1761C764C3800208020880A2829DA79
:103D40003078222806D138007249228889184E22FC
:103D500088541FE06F4D3078218869184E228854AE
:103D600038006D490870208828184E21405C01F009
:103D70004FF9002809D0208828184E21405C01F016
:103D800050F9218869184E2288542088401C2080D0
:103D9000761CD2E73220019000975C4C009A019982
:103DA000200001F047F85D48076064213A0002AC4A
:103DB000200001F03FF8574D2C007A34584920007C
:103DC00000F0E6F800280CD15649200000F0E0F899
:103DD000002806D154A1200000F0DAF8002800D114
:103DE00088E04E355149280000F0D2F8002804D070
:103DF0004F49200001F01EF981E04E49280000F0F3
:103E0000C7F800280BD14C49280000F0C1F8002861
:103E100005D14A49280000F0BBF8002804D04849E1
:103E2000200001F007F96AE04649280000F0B0F8E8
:103E300000280BD14449280000F0AAF8002805D139
:103E40004249280000F0A4F8002804D040A1200036
:103E500001F0F0F853E03F49280000F099F80028FD
:103E600005D13D49280000F093F8002804D03B49D3
:103E7000200001F0DFF842E03949280000F088F81E
:103E8000002805D13749280000F082F8002804D026
:103E90003549200001F0CEF831E03449280000F027
:103EA00077F800280BD13249280000F071F800287B
:103EB00005D13049280000F06BF8002804D02E49C5
:103EC000200001F0B7F81AE02C49280000F060F853
:103ED000002804D02A4902A801F0ACF80FE02949D3
:103EE000280000F055F8002809D019A1200001F0A1
:103EF000A1F804E0220024A102A801F09BF801200F
:103F0000224908701BB0F0BD504E3A0038390020ED
:103F1000563F0020103E0020673F0020403F002019
:103F20006C7C0008747C0008000000007C7C0008A9
:103F3000D87900089C7C0008A47C0008AC7C0008B0
:103F4000B47C0008BC7C0008C47C0008007B00082E
:103F500077777700CC7C0008247B0008D47C0008AD
:103F6000DC7C0008E47C0008E8790008307B00086D
:103F7000847C00083C7B00088C7C0008EC7C0008FA
:103F8000487B0008547B000825730000803F002018
:103F900070B50D78002D11D00C0004E0491C0E788E
:103FA000964207D0401C2900FDF756F8002805D09E
:103FB000010023005B1C1A78002AEFD170BDFEE7D8
:103FC00000B5BFF34F8F664866490860BFF34F8F57
:103FD00000BFFDE710B4030050338C001B191A60BA
:103FE00010BC70470200100050308B00C0180068F1
:103FF000704780B55C48FFF7FBFB5C48FFF7F8FBB8
:104000005B48FFF7F5FB5B48FFF7F2FB5A48FFF709
:10401000EFFB01BD78B58DB00500584C2078002825
:1040200003D15749200001F005F82078342800DA40
:1040300094E020783A2800DB90E02200514968465D
:1040400000F0F8FF6846FDF739F80100C9B268468C
:10405000FFF744FC4C48FFF705FC4C48FFF702FC17
:104060002800C0B2002814D002281AD015D3042882
:1040700023D01AD3062824D01BD3082829D024D330
:104080000A282ED029D30C2837D02ED30D2838D08B
:104090003AE03F48FFF7E6FB36E03E48FFF7E2FB39
:1040A00032E03D48FFF7DEFB2EE03C48FFF7DAFB4D
:1040B0002AE03B48FFF7D6FB26E03A48FFF7D2FB61
:1040C00022E03948FFF7CEFB1EE03848FFF7CAFB75
:1040D0001AE03748FFF7C6FB16E03648FFF7C2FB89
:1040E00012E03548FFF7BEFB0EE03449684600F0A9
:1040F000A1FF6846FFF7B6FB06E03148FFF7B2FBC9
:1041000002E03048FFF7AEFB2F4C30480288042114
:104110002000FFF75FFF03212000FFF763FF2C491A
:1041200008700A20FFF7BAFB1A20FFF7B7FB294EE9
:10413000300000F067F82848FFF75AFB300000F025
:1041400061F8264801780A2908DB00210170002265
:1041500003212000FFF73EFFFFF732FF0EB070BDD6
:104160000400FA050CED00E06C7B0008787B000889
:104170005C78000874780008847B0008F63D002015
:10418000907B0008087A00089C7B00082E3E0020E7
:10419000087600083C7600086C76000884770008F2
:1041A000D0750008607900088C780008187A00083B
:1041B000287A000874790008387A0008A478000882
:1041C000C8760008BC78000800280040563F002050
:1041D000813F002088130000A87B0008823F002058
:1041E00000B5BFF34F8F0D480D490860BFF34F8FE7
:1041F00000BFFDE710B4030050338C001B191A6098
:1042000010BC704700B5002807D006490A78012A7B
:10421000F9D100220A70401EF5E700BD0400FA053E
:104220000CED00E0643F0020F0B5BBB00026019625
:10423000FFF788FBAB4C2078401C207020782028AA
:1042400001DBFFF7CDFFA8480078012807D1A74878
:104250000078002803D130002070FFF72FFCA3481E
:104260000078002801D100F080FDA148FFF7FAFA9C
:104270006425370009AC3A002900200000F0DAFD7F
:104280009C4C2078002812D0207D00280FD046209A
:10429000205C00280BD0200046300090230014330F
:1042A0002200954920005A3000F0C4FE0AE09348ED
:1042B0000178491C0170027802219148FFF79AFFAA
:1042C000FFF78EFFC8270397029609AD029A03995C
:1042D000280000F0AFFD5A342000FCF7EFFE02008A
:1042E000884909A800F0A6FE09A8FFF7BBFA0D202F
:1042F000FFF7D4FA0A20FFF7D1FA2000FFF7B2FA4D
:104300000D20FFF7CBFA0A20FFF7C8FA7E4800908D
:104310003400C64D22000099280000F08BFDC44CEB
:104320002068002826D06420FFF76CFFC148017880
:10433000002904D0310001702068401E20602068F0
:10434000012803D16948067000F00FFDBA4DBB4942
:104350002800FFF71DFE0190002801D02660DEE74F
:10436000B7492800FFF714FE01900028D7D0FFF7C7
:1043700037FFD4E778202060B248FFF739FA0220EF
:10438000FFF7F0F9B04806602068002825D06420C7
:10439000FFF738FFA7480178002904D031000170E9
:1043A0002068401E20602068012803D14F48067015
:1043B00000F0DBFCA04DA5A12800FFF7E9FD01906E
:1043C000002801D02660DFE7A1492800FFF7E0FDC3
:1043D0000028D9D0FFF704FFD6E72760CB48FFF7C6
:1043E00007FA0520FFF7BEF9206800283BD00A2015
:1043F00000F048FD8F480178002904D03100017099
:104400002068401E20602068012803D137480670CC
:1044100000F0ABFC884DBE492800FFF7B9FD0190C4
:10442000002817D00120BB4908700198401D019059
:10443000B9A52900019800F01DFE07002900002001
:1044400000F018FE0190019800F0DBFD7E49086045
:104450002660C9E7B1492800FFF79AFD0028C3D0BC
:10446000FFF7BEFEC0E7049650202060AC48FFF77F
:10447000BFF90520FFF776F92068002846D06420B0
:10448000FFF7C0FE6B480178002904D031000170AD
:104490002068401E20602068012803D11348067060
:1044A00000F063FC644D9F492800FFF771FD070091
:1044B00000280DD0B81D01902660019800F0A1FDE4
:1044C00004903000934908700120C3490870D3E775
:1044D0005B492800FFF75CFD01900028CCD0FFF776
:1044E0007FFEC9E7683F00207E3F0020803F00201C
:1044F00088790008383D0020D4780008823F0020E9
:1045000000280040E47B00080C300000B348B449A8
:10451000086008903000B349088030006946887010
:1045200030006946C8700296350030006946087050
:104530003000694648703000AB4908700120AB4933
:104540000870A748006800281AD000F0B9FDA848F4
:10455000202101601021016004210160A54806604E
:10456000A54909684160A54909688160A44900F02E
:1045700011FE002801D000F077FFA24800F0B5FD41
:104580006420FFF73FFE30480068002800D1DBE3DD
:104590009D480368049A9D4909A800F04BFD09A8AD
:1045A000FFF726F90520FFF7DDF8FA20C00096494D
:1045B0000968FA22D20091420CD228300390924826
:1045C00000682830904908601F48006828381E4954
:1045D00008604AE08E49097800290CD02A300390FF
:1045E000894800682A3088490860174800682A38D6
:1045F0001549086039E08749097800290CD0463010
:1046000003908148006846307F4908600E48006882
:1046100046380D49086028E00B490A68FA23DB0098
:104620009A4217D2096803911FE000BF940000204E
:1046300000000020653F002038390020EC7B000896
:10464000F47B000898790008383F00204F4B0000A9
:10465000FC7B0008193003906B48006819306A49E8
:1046600008606D48016819390160039B049A6B4921
:1046700009A800F0DFFC09A8FFF7BAF80120684993
:1046800008703000674908701E20674908700120D3
:104690006649087030005049087030001D490870A4
:1046A00030006349088060480078002800D146E364
:1046B00060480178002905D0310001705A4801781E
:1046C000491E0170574800780028ECD03000564948
:1046D000087030005249087057495848FFF758FC95
:1046E000574C2060002808D020680830206055A171
:1046F0002068FFF74DFC206017E053495348FFF74F
:1047000047FC002810D0FFF76BFD0EE0DC770008B7
:10471000047C0008703F00202C0000000C7C000886
:1047200014780008147C0008266049480690059615
:10473000484F059A0699380000F07CFB2068007805
:10474000002800D1C2E22748008880210901884260
:1047500000D3BBE26420FFF755FD3AA12068FFF7C4
:1047600017FC2060206800281BD0300005002800BE
:1047700080B2202817DA20680078002813D020683B
:1047800000783A2808D12068401C206030000500DD
:1047900030003149087006E06D1C2068401C206024
:1047A000E5E700F0EBFA280080B2202804D10120D0
:1047B0002949087000F0E2FA206800287CD02068BF
:1047C000007830284ADB206800783A2846DA2068EA
:1047D0000078303851E000BF763F002000400108EB
:1047E000303F00205A3F0020843F0020613F0020DE
:1047F0000C200240E03E00201C3F0020203F002013
:10480000243F002050C300003C3F0020E87800080F
:10481000753F0020743F0020383F0020A879000831
:10482000713F0020723F00206D3F0020773F002045
:10483000543F0020653F0020EC7B000894000020DE
:10484000343F00203A000000887A00083839002000
:1048500098080000A0300020783F002020680078F1
:10486000412807DB20680078472803DA20680078B1
:10487000373802E0206800785738216849783029B5
:1048800007DB216849783A2903DA21684978303909
:104890000EE021684978412907DB216849784729DA
:1048A00003DA21684978373902E0216849785739B5
:1048B00000014018694608702068801C2060684626
:1048C00000782168002972D021680978302907DB37
:1048D000216809783A2903DA21680F78303F0EE021
:1048E00021680978412907DB21680978472903DA1B
:1048F00021680F78373F02E021680F78573F216821
:104900004978302907DB216849783A2903DA216898
:104910004B78303B0EE021684978412907DB21685C
:104920004978472903DA21684B78373B02E0216850
:104930004B78573B21688978302907DB21688978D3
:104940003A2903DA2168897830390EE021688978BC
:10495000412907DB21688978472903DA21688978AA
:10496000373902E02168897857392268D278302AAD
:1049700007DB2268D2783A2A03DA2268D278303A02
:104980000EE02268D278412A07DB2268D278472AD3
:1049900003DA2268D278373A02E02268D278573AAE
:1049A0003F031B02FB18090159188918029121685D
:1049B000091D2160029941189C48089A029BD2184F
:1049C00002602268002A39D022681278302A07DB78
:1049D000226812783A2A03DA22681278303A0EE016
:1049E00022681278412A07DB22681278472A03DA04
:1049F00022681278373A02E022681278573A236820
:104A00005B78302B07DB23685B783A2B03DA23686B
:104A10005B78303B0EE023685B78412B07DB236833
:104A20005B78472B03DA23685B78373B02E0236827
:104A30005B78573B1201D2186B465A702268921C61
:104A400022606A46527889186A46917069464978A8
:104A5000042900D084E069460978022900D07FE06B
:104A60002168002972D021680978302907DB216884
:104A700009783A2903DA21680F78303F0EE021687F
:104A80000978412907DB21680978472903DA216879
:104A90000F78373F02E021680F78573F2168497847
:104AA000302907DB216849783A2903DA21684B78F5
:104AB000303B0EE021684978412907DB21684978BD
:104AC000472903DA21684B78373B02E021684B78AD
:104AD000573B21688978302907DB216889783A2992
:104AE00003DA2168897830390EE021688978412914
:104AF00007DB21688978472903DA21688978373903
:104B000002E02168897857392268D278302A07DB99
:104B10002268D2783A2A03DA2268D278303A0EE054
:104B20002268D278412A07DB2268D278472A03DA42
:104B30002268D278373A02E02268D278573A3F03A7
:104B40001B02FB1809015918891801602168091D09
:104B50002160016809040160012085490870EDE5C4
:104B600002988449884207D168464078002803D1DA
:104B70000120814908700BE00298FE210902884259
:104B800006D168464078002802D10120804908708B
:104B90006846407801280AD168460078002806D186
:104BA0000298002803D101207A4908708EE06846F7
:104BB0004078002847D168460078002843D08A48CA
:104BC000007800283FD16A48007800283BD068462A
:104BD00000784000079020680690844F0597079A58
:104BE00006990598FCF798FA0598206869460978AF
:104BF000490040182060380000F0CEF805903000E1
:104C0000050028006946097880B289B288420FD22F
:104C1000774805992A0092B2895C764A0388D15474
:104C20000188491C01806D1CEBE700BF2C3F002070
:104C3000212007900696069A0799380000F0FAF8A6
:104C4000059800F014FC20680078302807DB206805
:104C500000783A2803DA2068007830380EE02068BF
:104C60000078412807DB20680078472803DA2068AD
:104C70000078373802E02068007857382168497892
:104C8000302907DB216849783A2903DA2168497815
:104C900030390EE021684978412907DB21684978DD
:104CA000472903DA21684978373902E021684978D1
:104CB0005739000140186946C8702068801C206080
:104CC0006846807841426846817037E5484C2088C4
:104CD000002801D100F052F8300047490870300038
:104CE000464908704648018822888918018045484D
:104CF00001682288891801602088434908603000D3
:104D0000424908703000208041480168FA22D200F0
:104D1000891801603F4801683F4A914204D3016805
:104D20003E4A8918016000E006603D480590340065
:104D30003C4F22000599380000F07CF8B3E4154898
:104D40000078002800D11EE42748007800280CD104
:104D5000354C502203212000FFF74CFA4622012156
:104D60002000FFF747FA314806703BB0F0BD000065
:104D70007A3F0020F0FF0000743F002080B54522FC
:104D800003212948FFF736FAFFF72AFA01BD000090
:104D9000753F00207B3F0020FEB507003800FCF780
:104DA0008DF9019001984008401C00F065FB060059
:104DB00000252C000198844210D268460021016031
:104DC0006846395D017039194978417060083218B8
:104DD0001749684600F0F0FBA41CEBE70198400877
:104DE00035543000FEBD0000783F0020BC3E00205E
:104DF0005A3F0020A0300020733F0020723F002067
:104E00005C3F0020303F00202C3F00206D3F002001
:104E10003C3F0020383F0020D107000030F8FFFF62
:104E20000C30000094000020002800406F3F00205C
:104E30001C7C00081206130A1A43130C1A4300BF05
:104E4000094205D0830705D00270401C491EF9D1E4
:104E5000704700001300103906D330B41400150059
:104E600010393CC0FCD230BC490700D30CC000D57F
:104E700004C0890002D30280801C002900D5027082
:104E80007047FEE780B508490A680092009A002240
:104E9000D243904200D0401C002804D00A68D203BC
:104EA000FAD5401EF8E701BD10E000E0FCB587B080
:104EB0000C001500002B01D000211960039006465C
:104EC00000E0761C3078FDF70DFC0028F9D13000A9
:104ED00001782D2901D02B2903D16A461170401C7D
:104EE00002E02B216A4611700194002D03D4012D9C
:104EF00001D0252D04DB002C54D00398206051E014
:104F0000002D0ADD102D16D10178302913D14178FA
:104F100020220A43782A0ED10AE00178302901D0F4
:104F20000A2508E0417820220A43782A02D1102578
:104F3000801C00E00825069000E0401C0178302924
:104F4000FBD0002405902B4A7A44A83228326B46C5
:104F50005A700295049F05000494264E7E449436B0
:104F600008E0049469464978471AFFB2029844431E
:104F7000E4196D1C2878FEF76AF9029A01003000E6
:104F80002830FCF7A3F80028EBD1029938002F0055
:104F9000049D069ABA4207D10198002802D00398CE
:104FA00001990860002022E0059ABA1A735CD21AAF
:104FB000002A11D405DC201A03D3FCF770FAA842AA
:104FC0000AD000BF00BF0898002802D0012008992D
:104FD00008600024E44305E0684600782D2801D1EC
:104FE000604204000198002800D00760200009B04A
:104FF000F0BD00BFB424000080B50023FFF756FFCA
:1050000002BD80B5FFE70A220021FFF7F5FF02BDD0
:1050100010B50400FCF7E2FB010020008969884715
:1050200010BD10B50400FCF7D9FB01002000C96ACF
:10503000884710BD0CB418B583B004000A0006A858
:10504000029001940020009002AB01A90848784426
:105050001E30FBF737F80021019A1170002801D4A7
:105060000198001B04B0019910BC03B0084700BFB1
:10507000FBBFFFFF38B505000AD00C00280000F088
:10508000AFFA2D182878002808D10C49086032BDE5
:105090000A480568002DF0D1002032BD210028000B
:1050A00000F0B0FA28180178002902D00021017020
:1050B000401C02490860280032BD00BF483F002064
:1050C00010B5002080212D4A13680B40002B0AD018
:1050D0002C4B2D4C1C602D4C1C601268114000297B
:1050E00001D001210800C0B210BD38B5040000F0A5
:1050F0009BFA050022480168C9070CD50020C0436F
:105100008442F7D0002C04D000F08EFA401B844279
:10511000F0D2032010E0202102680A40002A00D0CB
:1051200001600168C90602D40068400703D500F099
:1051300004F8012000E0002032BD30B5002010222C
:105140000F490B681340002B07D0114BDC69022577
:105150002543DD6103001000184304230A681A4048
:10516000002A07D00A4AD46901252543D5610200E7
:1051700018001043086030BD0000000010200240FD
:105180000C2002400420024023016745AB89EFCD8B
:10519000F03E0020F3B581B0012004000026350068
:1051A0002E49097E012901D1022049E02C490091B4
:1051B0000099087001980068012811D1294F380022
:1051C000FFF793FF002837D100F03BF83800FFF7D6
:1051D0008CFF0400244801680422914301602BE005
:1051E000204F3800FFF781FF002825D10020C04361
:1051F0000299086001984068050001988068C00223
:10520000019949684018854216D2280000F02EF80E
:105210003800FFF76AFF0400134801680222914337
:1052200001602000C0B2002802D00298056003E0AF
:10523000802000012D18E0E7009806702000C0B221
:10524000FEBD00200549C8610748016804220A43E1
:105250000260016840220A4302607047F03E00206D
:10526000083F002050C30000102002400021074AE0
:10527000D16107490A68022313430B60054A106095
:105280000A68402313430B6070470000F03E002083
:10529000102002401420024000B5BFF34F8F654834
:1052A00065490860BFF34F8F00BFFDE710B40300EE
:1052B00050338C001B191A6010BC704710B500F0F9
:1052C000B9F900F071F800F0D2F900F056FA00F0E8
:1052D0002FFB00F0AEFB594801780029FBD00021DC
:1052E000017057480078002802D0012809D03CE01E
:1052F00000F07EFC53480078012801D1FDF7B6FF8D
:10530000E9E7514C20780B281EDB207814281BDAA3
:105310000020FEF77FFE0A2020704C4849210170D2
:105320004B4922781202007802430A80494C0A88CD
:1053300003212000FFF7BAFF302201212000FFF7F0
:10534000B5FFFFF7A9FF0FE043480078002802D01F
:10535000FEF76AFF08E041480078002801D000BF4E
:1053600002E02078401C2070B5E7374C20780A28EE
:1053700003DA3B4800780A2812DB0020FEF74AFED9
:1053800032485021017032492278120200780243DB
:105390000A800A8803212F48FFF788FFFFF77CFF68
:1053A0002078401C207096E738B598B0342100244E
:1053B00022000BAD2800FFF73DFD102122006D46B5
:1053C0002800FFF737FD1C21220004AD2800FFF75D
:1053D00031FD09200B9001200C90129002251495AC
:1053E00080204002159080200003169017940BA88F
:1053F00000F06EFC002801D000F036F80720009085
:105400000195029403940121684600F011FF0028E1
:1054100001D000F029F81348049006948020800001
:10542000059004A801F00CF8002801D000F01CF849
:1054300019B030BD0400FA050CED00E0653F002016
:10544000693F0020633F0020823F0020813F002011
:10545000563F0020002800406F3F00205E3F0020A4
:105460006E3F00200100010000B572B6FEE780B576
:1054700000F05AF801BDFEE710B5040000BF00BF00
:10548000200000F005F8040000BF00BF200010BDA0
:1054900038B504000F3407218C43A0422BD2082CCE
:1054A00004D2082402E0083000F049F841490A68B3
:1054B000100005D1002207E01D68A5420DD2181D7D
:1054C0000368002BF8D11268081D00E0181D03685E
:1054D00093420CD01D68A542F8D300280BD0026877
:1054E0001368083BA34208D2536803600FE001F041
:1054F00061F80028D7D1002032BD1319036053682A
:10550000151D2B5113681B1B05682B601460006868
:10551000002804D04368002B01D0001D00E00020CB
:1055200008601000083032BD10B5040006D000BF7E
:1055300000BF200000F003F800BF00BF10BD00282E
:1055400000D1704770B408380268072A30D9510773
:105550002ED118494B68002B01D0984203D24360EA
:10556000486017E02B005D68002D01D08542F9D31B
:105570001D685E19B0421BD3864203D1A81818607B
:10558000180007E05C68002C02D0821894420FD308
:10559000446058604268002A0AD00368C4189442E4
:1055A00006D100240C6011685918016051684160EF
:1055B00070BC7047103F00200DB4C0B50A0004A8AD
:1055C00001900020009001AB03A9044878440C30FE
:1055D000FCF78AF9029906B0084700BF5BBAFFFFE3
:1055E00030B4020000E0521C1378002B07D00D00ED
:1055F00002E0A342F7D06D1C2C78002CF9D1101AD0
:1056000030BC704730B4020006E0A54209D05B1CF4
:105610001C78002CF9D1521C1578002D01D00B00FC
:10562000F6E7101A30BC704701480068704700BFA9
:10563000443F002080B50648016810220A430260FA
:10564000032000F0CDFF00F0F3FF002002BD0000BA
:10565000002002408162704781B032490A680243EB
:105660000A60096801400091009901B07047F8B5DF
:1056700086B01821002422006D462800FFF7DAFBCF
:105680008020C003FFF7E8FF80208002FFF7E4FFDF
:1056900080200003FFF7E0FF80204003FFF7DCFFDE
:1056A0008020C002FFF7D8FF80252D0129001E4869
:1056B000FFF7D0FF80277F0139001B48FFF7CAFFA3
:1056C00004211A48FFF7C6FF8026760031001848EB
:1056D000FFF7C0FF009501250195029403940494FF
:1056E0006946114801F01BF8009701950294039454
:1056F000049469460C4801F012F8042000900195CA
:105700000294039404946946084801F008F800964E
:1057100001950294039404946946054800F0FFFF44
:1057200007B0F0BD1410024000080048000C00480B
:10573000000400480269394B13400A041A4302610D
:1057400070470269D20BD2030A430261704710B45A
:10575000030050338C001B191A6010BC7047020004
:10576000100050308B00C018006870472C4801684A
:10577000802212020A430260704770B586B00C2185
:105780000024220003AD2800FFF754FB082122006B
:1057900001AD2800FFF74EFB042122006D462800D2
:1057A000FFF748FBFFF7E2FF03947F200490FF2000
:1057B00005901C4D03A9280001F066F87F21280000
:1057C000FFF7B8FFFF212800FFF7BBFF164E0021AF
:1057D0002800FFF7C4FFB0421DD001A821000171CD
:1057E000210041712100817101AA0121280001F0ED
:1057F0006EF80120694602000A7002004A70887043
:10580000CC706A460121280001F0D3F83200002153
:105810002800FFF79CFF06B070BD0000FFFF80FF6F
:105820002010024000280040F232000000B50100C4
:1058300049B2002905D40121C206D20E9140684A1E
:10584000116000BDF0B5020052B2002A17D4182230
:10585000644B040064B2A408A4001C59FF25C600D0
:105860001640B540AC438D01EDB2C60032409540C4
:105870002543020052B2920892009D501BE00F2275
:10588000594B182405006DB21540083DAD08AE0017
:1058900005006DB22A40083A920892009A58FF25F6
:1058A000C7002740BD40AA438D01EDB2C7003C4070
:1058B000A54015439D51F0BD016801220A430260D5
:1058C00070474168494A0A40426081682A229143F0
:1058D00081607047EFF31081012282F31088026823
:1058E00020231343036081F310887047EFF3108186
:1058F000012282F3108882683D4B1340836081F35C
:105900001088704781B03B490A6802430A60096801
:1059100001400091009901B0704781B036490A6892
:1059200002430A60096801400091009901B0704784
:10593000F0B58DB01C210024220006AD2800FFF731
:1059400079FA182122006D462800FFF773FA8020AB
:10595000C001FFF7E2FF80208002FFF7D3FF802025
:105960008000009002270197032602960394049476
:105970000125059569469020C00500F0D0FE8020E5
:10598000C00000900197029603940494059569461F
:105990009020C00500F0C3FE00211B20FFF752FF3E
:1059A0001B20FFF743FFE120400206900794089474
:1059B00009940C200A900B940C94104C06A920001A
:1059C00001F0EEF82000FFF791FF2000FFF779FFCC
:1059D0002000FFF771FF2000FFF77CFF0DB0F0BD46
:1059E00000E100E000E400E01CED00E0FFB7FFFF95
:1059F000FFFBFFFF14100240181002400038014066
:105A000000B5BFF34F8F79488C490860BFF34F8FC3
:105A100000BFFDE710B4030050338C001B191A605F
:105A200010BC70470200100050308B00C018006896
:105A30007047FEB58020400081490860814E0421F6
:105A40008148FFF7EFFF3070804F04217E48FFF759
:105A5000E9FF000A38707E4C7E492000FFF7EAFA21
:105A60007D4D7E492800FFF7E5FA7D49200046304C
:105A7000FFF7E0FA2000463000902B002200794921
:105A800020005A30FFF7D6FA77480078032802DB67
:105A90000020754908700025280074490870280006
:105AA0007349087028007349087001247248047013
:105AB000192072490870280071490870307845280B
:105AC00002D13878FF2802D03078502800D139E050
:105AD0003078492802D03078532806D130785328BE
